{
  "contractName": "PixelChads",
  "abi": [
    {
      "inputs": [
        {
          "internalType": "string",
          "name": "_contractURI",
          "type": "string"
        },
        {
          "internalType": "string",
          "name": "_startingBaseURI",
          "type": "string"
        }
      ],
      "stateMutability": "nonpayable",
      "type": "constructor"
    },
    {
      "anonymous": false,
      "inputs": [
        {
          "indexed": true,
          "internalType": "address",
          "name": "owner",
          "type": "address"
        },
        {
          "indexed": true,
          "internalType": "address",
          "name": "approved",
          "type": "address"
        },
        {
          "indexed": true,
          "internalType": "uint256",
          "name": "tokenId",
          "type": "uint256"
        }
      ],
      "name": "Approval",
      "type": "event"
    },
    {
      "anonymous": false,
      "inputs": [
        {
          "indexed": true,
          "internalType": "address",
          "name": "owner",
          "type": "address"
        },
        {
          "indexed": true,
          "internalType": "address",
          "name": "operator",
          "type": "address"
        },
        {
          "indexed": false,
          "internalType": "bool",
          "name": "approved",
          "type": "bool"
        }
      ],
      "name": "ApprovalForAll",
      "type": "event"
    },
    {
      "anonymous": false,
      "inputs": [
        {
          "indexed": true,
          "internalType": "address",
          "name": "previousOwner",
          "type": "address"
        },
        {
          "indexed": true,
          "internalType": "address",
          "name": "newOwner",
          "type": "address"
        }
      ],
      "name": "OwnershipTransferred",
      "type": "event"
    },
    {
      "anonymous": false,
      "inputs": [
        {
          "indexed": false,
          "internalType": "address",
          "name": "account",
          "type": "address"
        }
      ],
      "name": "Paused",
      "type": "event"
    },
    {
      "anonymous": false,
      "inputs": [
        {
          "indexed": true,
          "internalType": "address",
          "name": "from",
          "type": "address"
        },
        {
          "indexed": true,
          "internalType": "address",
          "name": "to",
          "type": "address"
        },
        {
          "indexed": true,
          "internalType": "uint256",
          "name": "tokenId",
          "type": "uint256"
        }
      ],
      "name": "Transfer",
      "type": "event"
    },
    {
      "anonymous": false,
      "inputs": [
        {
          "indexed": false,
          "internalType": "address",
          "name": "account",
          "type": "address"
        }
      ],
      "name": "Unpaused",
      "type": "event"
    },
    {
      "anonymous": false,
      "inputs": [
        {
          "indexed": true,
          "internalType": "address",
          "name": "to",
          "type": "address"
        },
        {
          "indexed": true,
          "internalType": "uint256",
          "name": "tokenId",
          "type": "uint256"
        }
      ],
      "name": "tokenMinted",
      "type": "event"
    },
    {
      "anonymous": false,
      "inputs": [
        {
          "indexed": true,
          "internalType": "uint256",
          "name": "tokenId",
          "type": "uint256"
        }
      ],
      "name": "tokenUpdated",
      "type": "event"
    },
    {
      "inputs": [
        {
          "internalType": "address",
          "name": "to",
          "type": "address"
        },
        {
          "internalType": "uint256",
          "name": "tokenId",
          "type": "uint256"
        }
      ],
      "name": "approve",
      "outputs": [],
      "stateMutability": "nonpayable",
      "type": "function"
    },
    {
      "inputs": [
        {
          "internalType": "address",
          "name": "owner",
          "type": "address"
        }
      ],
      "name": "balanceOf",
      "outputs": [
        {
          "internalType": "uint256",
          "name": "",
          "type": "uint256"
        }
      ],
      "stateMutability": "view",
      "type": "function"
    },
    {
      "inputs": [],
      "name": "collectionRoyaltyAmount",
      "outputs": [
        {
          "internalType": "uint256",
          "name": "",
          "type": "uint256"
        }
      ],
      "stateMutability": "view",
      "type": "function"
    },
    {
      "inputs": [
        {
          "internalType": "uint256",
          "name": "tokenId",
          "type": "uint256"
        }
      ],
      "name": "getApproved",
      "outputs": [
        {
          "internalType": "address",
          "name": "",
          "type": "address"
        }
      ],
      "stateMutability": "view",
      "type": "function"
    },
    {
      "inputs": [
        {
          "internalType": "address",
          "name": "owner",
          "type": "address"
        },
        {
          "internalType": "address",
          "name": "operator",
          "type": "address"
        }
      ],
      "name": "isApprovedForAll",
      "outputs": [
        {
          "internalType": "bool",
          "name": "",
          "type": "bool"
        }
      ],
      "stateMutability": "view",
      "type": "function"
    },
    {
      "inputs": [],
      "name": "maxSupply",
      "outputs": [
        {
          "internalType": "uint256",
          "name": "",
          "type": "uint256"
        }
      ],
      "stateMutability": "view",
      "type": "function"
    },
    {
      "inputs": [],
      "name": "name",
      "outputs": [
        {
          "internalType": "string",
          "name": "",
          "type": "string"
        }
      ],
      "stateMutability": "view",
      "type": "function"
    },
    {
      "inputs": [],
      "name": "owner",
      "outputs": [
        {
          "internalType": "address",
          "name": "",
          "type": "address"
        }
      ],
      "stateMutability": "view",
      "type": "function"
    },
    {
      "inputs": [
        {
          "internalType": "uint256",
          "name": "tokenId",
          "type": "uint256"
        }
      ],
      "name": "ownerOf",
      "outputs": [
        {
          "internalType": "address",
          "name": "",
          "type": "address"
        }
      ],
      "stateMutability": "view",
      "type": "function"
    },
    {
      "inputs": [],
      "name": "paused",
      "outputs": [
        {
          "internalType": "bool",
          "name": "",
          "type": "bool"
        }
      ],
      "stateMutability": "view",
      "type": "function"
    },
    {
      "inputs": [],
      "name": "paymentReceiver",
      "outputs": [
        {
          "internalType": "address",
          "name": "",
          "type": "address"
        }
      ],
      "stateMutability": "view",
      "type": "function"
    },
    {
      "inputs": [],
      "name": "renounceOwnership",
      "outputs": [],
      "stateMutability": "nonpayable",
      "type": "function"
    },
    {
      "inputs": [
        {
          "internalType": "address",
          "name": "from",
          "type": "address"
        },
        {
          "internalType": "address",
          "name": "to",
          "type": "address"
        },
        {
          "internalType": "uint256",
          "name": "tokenId",
          "type": "uint256"
        }
      ],
      "name": "safeTransferFrom",
      "outputs": [],
      "stateMutability": "nonpayable",
      "type": "function"
    },
    {
      "inputs": [
        {
          "internalType": "address",
          "name": "from",
          "type": "address"
        },
        {
          "internalType": "address",
          "name": "to",
          "type": "address"
        },
        {
          "internalType": "uint256",
          "name": "tokenId",
          "type": "uint256"
        },
        {
          "internalType": "bytes",
          "name": "data",
          "type": "bytes"
        }
      ],
      "name": "safeTransferFrom",
      "outputs": [],
      "stateMutability": "nonpayable",
      "type": "function"
    },
    {
      "inputs": [
        {
          "internalType": "address",
          "name": "operator",
          "type": "address"
        },
        {
          "internalType": "bool",
          "name": "approved",
          "type": "bool"
        }
      ],
      "name": "setApprovalForAll",
      "outputs": [],
      "stateMutability": "nonpayable",
      "type": "function"
    },
    {
      "inputs": [],
      "name": "symbol",
      "outputs": [
        {
          "internalType": "string",
          "name": "",
          "type": "string"
        }
      ],
      "stateMutability": "view",
      "type": "function"
    },
    {
      "inputs": [
        {
          "internalType": "uint256",
          "name": "index",
          "type": "uint256"
        }
      ],
      "name": "tokenByIndex",
      "outputs": [
        {
          "internalType": "uint256",
          "name": "",
          "type": "uint256"
        }
      ],
      "stateMutability": "view",
      "type": "function"
    },
    {
      "inputs": [
        {
          "internalType": "address",
          "name": "owner",
          "type": "address"
        },
        {
          "internalType": "uint256",
          "name": "index",
          "type": "uint256"
        }
      ],
      "name": "tokenOfOwnerByIndex",
      "outputs": [
        {
          "internalType": "uint256",
          "name": "",
          "type": "uint256"
        }
      ],
      "stateMutability": "view",
      "type": "function"
    },
    {
      "inputs": [],
      "name": "totalSupply",
      "outputs": [
        {
          "internalType": "uint256",
          "name": "",
          "type": "uint256"
        }
      ],
      "stateMutability": "view",
      "type": "function"
    },
    {
      "inputs": [
        {
          "internalType": "address",
          "name": "from",
          "type": "address"
        },
        {
          "internalType": "address",
          "name": "to",
          "type": "address"
        },
        {
          "internalType": "uint256",
          "name": "tokenId",
          "type": "uint256"
        }
      ],
      "name": "transferFrom",
      "outputs": [],
      "stateMutability": "nonpayable",
      "type": "function"
    },
    {
      "inputs": [
        {
          "internalType": "address",
          "name": "newOwner",
          "type": "address"
        }
      ],
      "name": "transferOwnership",
      "outputs": [],
      "stateMutability": "nonpayable",
      "type": "function"
    },
    {
      "stateMutability": "payable",
      "type": "receive"
    },
    {
      "inputs": [],
      "name": "safeMint",
      "outputs": [],
      "stateMutability": "nonpayable",
      "type": "function"
    },
    {
      "inputs": [
        {
          "internalType": "uint256",
          "name": "tokenId",
          "type": "uint256"
        },
        {
          "internalType": "string",
          "name": "uri",
          "type": "string"
        }
      ],
      "name": "updateTokenURI",
      "outputs": [],
      "stateMutability": "nonpayable",
      "type": "function"
    },
    {
      "inputs": [
        {
          "internalType": "address",
          "name": "_paymentReceiver",
          "type": "address"
        }
      ],
      "name": "updatePaymentReceiver",
      "outputs": [],
      "stateMutability": "nonpayable",
      "type": "function"
    },
    {
      "inputs": [
        {
          "internalType": "string",
          "name": "_contractURI",
          "type": "string"
        }
      ],
      "name": "updateContractURI",
      "outputs": [],
      "stateMutability": "nonpayable",
      "type": "function"
    },
    {
      "inputs": [],
      "name": "withdraw",
      "outputs": [],
      "stateMutability": "nonpayable",
      "type": "function"
    },
    {
      "inputs": [],
      "name": "pause",
      "outputs": [],
      "stateMutability": "nonpayable",
      "type": "function"
    },
    {
      "inputs": [],
      "name": "unpause",
      "outputs": [],
      "stateMutability": "nonpayable",
      "type": "function"
    },
    {
      "inputs": [
        {
          "internalType": "bytes4",
          "name": "interfaceId",
          "type": "bytes4"
        }
      ],
      "name": "supportsInterface",
      "outputs": [
        {
          "internalType": "bool",
          "name": "",
          "type": "bool"
        }
      ],
      "stateMutability": "view",
      "type": "function"
    },
    {
      "inputs": [
        {
          "internalType": "uint256",
          "name": "tokenId",
          "type": "uint256"
        }
      ],
      "name": "tokenURI",
      "outputs": [
        {
          "internalType": "string",
          "name": "",
          "type": "string"
        }
      ],
      "stateMutability": "view",
      "type": "function"
    },
    {
      "inputs": [
        {
          "internalType": "uint256",
          "name": "",
          "type": "uint256"
        },
        {
          "internalType": "uint256",
          "name": "salePrice",
          "type": "uint256"
        }
      ],
      "name": "royaltyInfo",
      "outputs": [
        {
          "internalType": "address",
          "name": "receiver",
          "type": "address"
        },
        {
          "internalType": "uint256",
          "name": "royaltyAmount",
          "type": "uint256"
        }
      ],
      "stateMutability": "view",
      "type": "function"
    }
  ],
  "bytecode": "0x60a06040526101f46080908152506064600c553480156200001f57600080fd5b5060405162004d4d38038062004d4d8339818101604052810190620000459190620003e0565b6040518060400160405280600a81526020017f506978656c4368616473000000000000000000000000000000000000000000008152506040518060400160405280600481526020017f43484144000000000000000000000000000000000000000000000000000000008152508160009081620000c29190620006b0565b508060019081620000d49190620006b0565b5050506000600a60006101000a81548160ff02191690831515021790555062000112620001066200017f60201b60201c565b6200018760201b60201c565b81600d9081620001239190620006b0565b5033600f60006101000a81548173ffffffffffffffffffffffffffffffffffffffff021916908373ffffffffffffffffffffffffffffffffffffffff16021790555080600e9081620001769190620006b0565b50505062000797565b600033905090565b6000600a60019054906101000a900473ffffffffffffffffffffffffffffffffffffffff16905081600a60016101000a81548173ffffffffffffffffffffffffffffffffffffffff021916908373ffffffffffffffffffffffffffffffffffffffff1602179055508173ffffffffffffffffffffffffffffffffffffffff168173ffffffffffffffffffffffffffffffffffffffff167f8be0079c531659141344cd1fd0a4f28419497f9722a3daafe3b4186f6b6457e060405160405180910390a35050565b6000604051905090565b600080fd5b600080fd5b600080fd5b600080fd5b6000601f19601f8301169050919050565b7f4e487b7100000000000000000000000000000000000000000000000000000000600052604160045260246000fd5b620002b6826200026b565b810181811067ffffffffffffffff82111715620002d857620002d76200027c565b5b80604052505050565b6000620002ed6200024d565b9050620002fb8282620002ab565b919050565b600067ffffffffffffffff8211156200031e576200031d6200027c565b5b62000329826200026b565b9050602081019050919050565b60005b838110156200035657808201518184015260208101905062000339565b60008484015250505050565b600062000379620003738462000300565b620002e1565b90508281526020810184848401111562000398576200039762000266565b5b620003a584828562000336565b509392505050565b600082601f830112620003c557620003c462000261565b5b8151620003d784826020860162000362565b91505092915050565b60008060408385031215620003fa57620003f962000257565b5b600083015167ffffffffffffffff8111156200041b576200041a6200025c565b5b6200042985828601620003ad565b925050602083015167ffffffffffffffff8111156200044d576200044c6200025c565b5b6200045b85828601620003ad565b9150509250929050565b600081519050919050565b7f4e487b7100000000000000000000000000000000000000000000000000000000600052602260045260246000fd5b60006002820490506001821680620004b857607f821691505b602082108103620004ce57620004cd62000470565b5b50919050565b60008190508160005260206000209050919050565b60006020601f8301049050919050565b600082821b905092915050565b600060088302620005387fffffffffffffffffffffffffffffffffffffffffffffffffffffffffffffffff82620004f9565b620005448683620004f9565b95508019841693508086168417925050509392505050565b6000819050919050565b6000819050919050565b6000620005916200058b62000585846200055c565b62000566565b6200055c565b9050919050565b6000819050919050565b620005ad8362000570565b620005c5620005bc8262000598565b84845462000506565b825550505050565b600090565b620005dc620005cd565b620005e9818484620005a2565b505050565b5b81811015620006115762000605600082620005d2565b600181019050620005ef565b5050565b601f82111562000660576200062a81620004d4565b6200063584620004e9565b8101602085101562000645578190505b6200065d6200065485620004e9565b830182620005ee565b50505b505050565b600082821c905092915050565b6000620006856000198460080262000665565b1980831691505092915050565b6000620006a0838362000672565b9150826002028217905092915050565b620006bb8262000465565b67ffffffffffffffff811115620006d757620006d66200027c565b5b620006e382546200049f565b620006f082828562000615565b600060209050601f83116001811462000728576000841562000713578287015190505b6200071f858262000692565b8655506200078f565b601f1984166200073886620004d4565b60005b8281101562000762578489015182556001820191506020850194506020810190506200073b565b868310156200078257848901516200077e601f89168262000672565b8355505b6001600288020188555050505b505050505050565b608051614593620007ba60003960008181610e03015261125701526145936000f3fe6080604052600436106101dc5760003560e01c80636352211e11610102578063a22cb46511610095578063cb37f3b211610064578063cb37f3b21461068e578063d5abeb01146106b9578063e985e9c5146106e4578063f2fde38b14610721576101e3565b8063a22cb465146105d4578063b88d4fde146105fd578063c7b6100714610626578063c87b56dd14610651576101e3565b80637e5b1e24116100d15780637e5b1e241461053e5780638456cb59146105675780638da5cb5b1461057e57806395d89b41146105a9576101e3565b80636352211e146104965780636871ee40146104d357806370a08231146104ea578063715018a614610527576101e3565b806323b872dd1161017a5780633f4ba83a116101495780633f4ba83a146103ee57806342842e0e146104055780634f6ccce71461042e5780635c975abb1461046b576101e3565b806323b872dd146103335780632a55205a1461035c5780632f745c591461039a5780633ccfd60b146103d7576101e3565b8063095ea7b3116101b6578063095ea7b31461028d5780630bdfe46c146102b657806318160ddd146102df57806318e97fd11461030a576101e3565b806301ffc9a7146101e857806306fdde0314610225578063081812fc14610250576101e3565b366101e357005b600080fd5b3480156101f457600080fd5b5061020f600480360381019061020a9190612d2a565b61074a565b60405161021c9190612d72565b60405180910390f35b34801561023157600080fd5b5061023a61075c565b6040516102479190612e1d565b60405180910390f35b34801561025c57600080fd5b5061027760048036038101906102729190612e75565b6107ee565b6040516102849190612ee3565b60405180910390f35b34801561029957600080fd5b506102b460048036038101906102af9190612f2a565b610834565b005b3480156102c257600080fd5b506102dd60048036038101906102d89190612f6a565b61094b565b005b3480156102eb57600080fd5b506102f4610997565b6040516103019190612fa6565b60405180910390f35b34801561031657600080fd5b50610331600480360381019061032c91906130f6565b6109a4565b005b34801561033f57600080fd5b5061035a60048036038101906103559190613152565b610ae1565b005b34801561036857600080fd5b50610383600480360381019061037e91906131a5565b610b41565b6040516103919291906131e5565b60405180910390f35b3480156103a657600080fd5b506103c160048036038101906103bc9190612f2a565b610b93565b6040516103ce9190612fa6565b60405180910390f35b3480156103e357600080fd5b506103ec610c38565b005b3480156103fa57600080fd5b50610403610cb9565b005b34801561041157600080fd5b5061042c60048036038101906104279190613152565b610ccb565b005b34801561043a57600080fd5b5061045560048036038101906104509190612e75565b610ceb565b6040516104629190612fa6565b60405180910390f35b34801561047757600080fd5b50610480610d5c565b60405161048d9190612d72565b60405180910390f35b3480156104a257600080fd5b506104bd60048036038101906104b89190612e75565b610d73565b6040516104ca9190612ee3565b60405180910390f35b3480156104df57600080fd5b506104e8610df9565b005b3480156104f657600080fd5b50610511600480360381019061050c9190612f6a565b610f0c565b60405161051e9190612fa6565b60405180910390f35b34801561053357600080fd5b5061053c610fc3565b005b34801561054a57600080fd5b506105656004803603810190610560919061320e565b610fd7565b005b34801561057357600080fd5b5061057c610ff2565b005b34801561058a57600080fd5b50610593611004565b6040516105a09190612ee3565b60405180910390f35b3480156105b557600080fd5b506105be61102e565b6040516105cb9190612e1d565b60405180910390f35b3480156105e057600080fd5b506105fb60048036038101906105f69190613283565b6110c0565b005b34801561060957600080fd5b50610624600480360381019061061f9190613364565b6110d6565b005b34801561063257600080fd5b5061063b611138565b6040516106489190612fa6565b60405180910390f35b34801561065d57600080fd5b5061067860048036038101906106739190612e75565b61113e565b6040516106859190612e1d565b60405180910390f35b34801561069a57600080fd5b506106a361122f565b6040516106b09190612ee3565b60405180910390f35b3480156106c557600080fd5b506106ce611255565b6040516106db9190612fa6565b60405180910390f35b3480156106f057600080fd5b5061070b600480360381019061070691906133e7565b611279565b6040516107189190612d72565b60405180910390f35b34801561072d57600080fd5b5061074860048036038101906107439190612f6a565b61130d565b005b600061075582611390565b9050919050565b60606000805461076b90613456565b80601f016020809104026020016040519081016040528092919081815260200182805461079790613456565b80156107e45780601f106107b9576101008083540402835291602001916107e4565b820191906000526020600020905b8154815290600101906020018083116107c757829003601f168201915b5050505050905090565b60006107f98261140a565b6004600083815260200190815260200160002060009054906101000a900473ffffffffffffffffffffffffffffffffffffffff169050919050565b600061083f82610d73565b90508073ffffffffffffffffffffffffffffffffffffffff168373ffffffffffffffffffffffffffffffffffffffff16036108af576040517f08c379a00000000000000000000000000000000000000000000000000000000081526004016108a6906134f9565b60405180910390fd5b8073ffffffffffffffffffffffffffffffffffffffff166108ce611455565b73ffffffffffffffffffffffffffffffffffffffff1614806108fd57506108fc816108f7611455565b611279565b5b61093c576040517f08c379a00000000000000000000000000000000000000000000000000000000081526004016109339061358b565b60405180910390fd5b610946838361145d565b505050565b610953611516565b80600f60006101000a81548173ffffffffffffffffffffffffffffffffffffffff021916908373ffffffffffffffffffffffffffffffffffffffff16021790555050565b6000600880549050905090565b6109ac611516565b6109b582611594565b6109f4576040517f08c379a00000000000000000000000000000000000000000000000000000000081526004016109eb906135f7565b60405180910390fd5b600015156010600084815260200190815260200160002060009054906101000a900460ff16151514610a5b576040517f08c379a0000000000000000000000000000000000000000000000000000000008152600401610a5290613663565b60405180910390fd5b60016010600084815260200190815260200160002060006101000a81548160ff021916908315150217905550817f929cc2f05ef887750595a55a18601853b3b1422b643bd8f77efaaaa67178dc5d60405160405180910390a2601160008381526020019081526020016000206000610ad39190612c61565b610add82826115d5565b5050565b610af2610aec611455565b82611642565b610b31576040517f08c379a0000000000000000000000000000000000000000000000000000000008152600401610b28906136f5565b60405180910390fd5b610b3c8383836116d7565b505050565b60008060006103e8600c5485610b579190613744565b610b6191906137b5565b9050600f60009054906101000a900473ffffffffffffffffffffffffffffffffffffffff168192509250509250929050565b6000610b9e83610f0c565b8210610bdf576040517f08c379a0000000000000000000000000000000000000000000000000000000008152600401610bd690613858565b60405180910390fd5b600660008473ffffffffffffffffffffffffffffffffffffffff1673ffffffffffffffffffffffffffffffffffffffff168152602001908152602001600020600083815260200190815260200160002054905092915050565b610c40611516565b610c486119d0565b6000479050600f60009054906101000a900473ffffffffffffffffffffffffffffffffffffffff1673ffffffffffffffffffffffffffffffffffffffff166108fc829081150290604051600060405180830381858888f19350505050158015610cb5573d6000803e3d6000fd5b5050565b610cc1611516565b610cc9611a1a565b565b610ce6838383604051806020016040528060008152506110d6565b505050565b6000610cf5610997565b8210610d36576040517f08c379a0000000000000000000000000000000000000000000000000000000008152600401610d2d906138ea565b60405180910390fd5b60088281548110610d4a57610d4961390a565b5b90600052602060002001549050919050565b6000600a60009054906101000a900460ff16905090565b600080610d7f83611a7d565b9050600073ffffffffffffffffffffffffffffffffffffffff168173ffffffffffffffffffffffffffffffffffffffff1603610df0576040517f08c379a0000000000000000000000000000000000000000000000000000000008152600401610de790613985565b60405180910390fd5b80915050919050565b610e016119d0565b7f0000000000000000000000000000000000000000000000000000000000000000610e2c600b611aba565b10610e6c576040517f08c379a0000000000000000000000000000000000000000000000000000000008152600401610e63906139f1565b60405180910390fd5b6000610e78600b611aba565b90506000610e8582611ac8565b604051602001610e959190613a99565b6040516020818303038152906040529050610eb0600b611b96565b813373ffffffffffffffffffffffffffffffffffffffff167f2d8eb9b9558d4b5ef1d238622692f6156d5822009340e26ab15fac05d64c12f060405160405180910390a3610efe3383611bac565b610f0882826115d5565b5050565b60008073ffffffffffffffffffffffffffffffffffffffff168273ffffffffffffffffffffffffffffffffffffffff1603610f7c576040517f08c379a0000000000000000000000000000000000000000000000000000000008152600401610f7390613b2d565b60405180910390fd5b600360008373ffffffffffffffffffffffffffffffffffffffff1673ffffffffffffffffffffffffffffffffffffffff168152602001908152602001600020549050919050565b610fcb611516565b610fd56000611bca565b565b610fdf611516565b80600d9081610fee9190613cf9565b5050565b610ffa611516565b611002611c90565b565b6000600a60019054906101000a900473ffffffffffffffffffffffffffffffffffffffff16905090565b60606001805461103d90613456565b80601f016020809104026020016040519081016040528092919081815260200182805461106990613456565b80156110b65780601f1061108b576101008083540402835291602001916110b6565b820191906000526020600020905b81548152906001019060200180831161109957829003601f168201915b5050505050905090565b6110d26110cb611455565b8383611cf3565b5050565b6110e76110e1611455565b83611642565b611126576040517f08c379a000000000000000000000000000000000000000000000000000000000815260040161111d906136f5565b60405180910390fd5b61113284848484611e5f565b50505050565b600c5481565b60606111498261140a565b600060116000848152602001908152602001600020805461116990613456565b80601f016020809104026020016040519081016040528092919081815260200182805461119590613456565b80156111e25780601f106111b7576101008083540402835291602001916111e2565b820191906000526020600020905b8154815290600101906020018083116111c557829003601f168201915b5050505050905060006111f3611ebb565b9050600081510361120857819250505061122a565b60008251111561121c57819250505061122a565b61122584611f4d565b925050505b919050565b600f60009054906101000a900473ffffffffffffffffffffffffffffffffffffffff1681565b7f000000000000000000000000000000000000000000000000000000000000000081565b6000600560008473ffffffffffffffffffffffffffffffffffffffff1673ffffffffffffffffffffffffffffffffffffffff16815260200190815260200160002060008373ffffffffffffffffffffffffffffffffffffffff1673ffffffffffffffffffffffffffffffffffffffff16815260200190815260200160002060009054906101000a900460ff16905092915050565b611315611516565b600073ffffffffffffffffffffffffffffffffffffffff168173ffffffffffffffffffffffffffffffffffffffff1603611384576040517f08c379a000000000000000000000000000000000000000000000000000000000815260040161137b90613e3d565b60405180910390fd5b61138d81611bca565b50565b60007f780e9d63000000000000000000000000000000000000000000000000000000007bffffffffffffffffffffffffffffffffffffffffffffffffffffffff1916827bffffffffffffffffffffffffffffffffffffffffffffffffffffffff19161480611403575061140282611fb5565b5b9050919050565b61141381611594565b611452576040517f08c379a000000000000000000000000000000000000000000000000000000000815260040161144990613985565b60405180910390fd5b50565b600033905090565b816004600083815260200190815260200160002060006101000a81548173ffffffffffffffffffffffffffffffffffffffff021916908373ffffffffffffffffffffffffffffffffffffffff160217905550808273ffffffffffffffffffffffffffffffffffffffff166114d083610d73565b73ffffffffffffffffffffffffffffffffffffffff167f8c5be1e5ebec7d5bd14f71427d1e84f3dd0314c0f7b2291e5b200ac8c7c3b92560405160405180910390a45050565b61151e611455565b73ffffffffffffffffffffffffffffffffffffffff1661153c611004565b73ffffffffffffffffffffffffffffffffffffffff1614611592576040517f08c379a000000000000000000000000000000000000000000000000000000000815260040161158990613ea9565b60405180910390fd5b565b60008073ffffffffffffffffffffffffffffffffffffffff166115b683611a7d565b73ffffffffffffffffffffffffffffffffffffffff1614159050919050565b6115de82611594565b61161d576040517f08c379a000000000000000000000000000000000000000000000000000000000815260040161161490613f3b565b60405180910390fd5b8060116000848152602001908152602001600020908161163d9190613cf9565b505050565b60008061164e83610d73565b90508073ffffffffffffffffffffffffffffffffffffffff168473ffffffffffffffffffffffffffffffffffffffff161480611690575061168f8185611279565b5b806116ce57508373ffffffffffffffffffffffffffffffffffffffff166116b6846107ee565b73ffffffffffffffffffffffffffffffffffffffff16145b91505092915050565b8273ffffffffffffffffffffffffffffffffffffffff166116f782610d73565b73ffffffffffffffffffffffffffffffffffffffff161461174d576040517f08c379a000000000000000000000000000000000000000000000000000000000815260040161174490613fcd565b60405180910390fd5b600073ffffffffffffffffffffffffffffffffffffffff168273ffffffffffffffffffffffffffffffffffffffff16036117bc576040517f08c379a00000000000000000000000000000000000000000000000000000000081526004016117b39061405f565b60405180910390fd5b6117c98383836001612097565b8273ffffffffffffffffffffffffffffffffffffffff166117e982610d73565b73ffffffffffffffffffffffffffffffffffffffff161461183f576040517f08c379a000000000000000000000000000000000000000000000000000000000815260040161183690613fcd565b60405180910390fd5b6004600082815260200190815260200160002060006101000a81549073ffffffffffffffffffffffffffffffffffffffff02191690556001600360008573ffffffffffffffffffffffffffffffffffffffff1673ffffffffffffffffffffffffffffffffffffffff168152602001908152602001600020600082825403925050819055506001600360008473ffffffffffffffffffffffffffffffffffffffff1673ffffffffffffffffffffffffffffffffffffffff16815260200190815260200160002060008282540192505081905550816002600083815260200190815260200160002060006101000a81548173ffffffffffffffffffffffffffffffffffffffff021916908373ffffffffffffffffffffffffffffffffffffffff160217905550808273ffffffffffffffffffffffffffffffffffffffff168473ffffffffffffffffffffffffffffffffffffffff167fddf252ad1be2c89b69c2b068fc378daa952ba7f163c4a11628f55a4df523b3ef60405160405180910390a46119cb83838360016120a9565b505050565b6119d8610d5c565b15611a18576040517f08c379a0000000000000000000000000000000000000000000000000000000008152600401611a0f906140cb565b60405180910390fd5b565b611a226120af565b6000600a60006101000a81548160ff0219169083151502179055507f5db9ee0a495bf2e6ff9c91a7834c1ba4fdd244a5e8aa4e537bd38aeae4b073aa611a66611455565b604051611a739190612ee3565b60405180910390a1565b60006002600083815260200190815260200160002060009054906101000a900473ffffffffffffffffffffffffffffffffffffffff169050919050565b600081600001549050919050565b606060006001611ad7846120f8565b01905060008167ffffffffffffffff811115611af657611af5612fcb565b5b6040519080825280601f01601f191660200182016040528015611b285781602001600182028036833780820191505090505b509050600082602001820190505b600115611b8b578080600190039150507f3031323334353637383961626364656600000000000000000000000000000000600a86061a8153600a8581611b7f57611b7e613786565b5b04945060008503611b36575b819350505050919050565b6001816000016000828254019250508190555050565b611bc682826040518060200160405280600081525061224b565b5050565b6000600a60019054906101000a900473ffffffffffffffffffffffffffffffffffffffff16905081600a60016101000a81548173ffffffffffffffffffffffffffffffffffffffff021916908373ffffffffffffffffffffffffffffffffffffffff1602179055508173ffffffffffffffffffffffffffffffffffffffff168173ffffffffffffffffffffffffffffffffffffffff167f8be0079c531659141344cd1fd0a4f28419497f9722a3daafe3b4186f6b6457e060405160405180910390a35050565b611c986119d0565b6001600a60006101000a81548160ff0219169083151502179055507f62e78cea01bee320cd4e420270b5ea74000d11b0c9f74754ebdbfc544b05a258611cdc611455565b604051611ce99190612ee3565b60405180910390a1565b8173ffffffffffffffffffffffffffffffffffffffff168373ffffffffffffffffffffffffffffffffffffffff1603611d61576040517f08c379a0000000000000000000000000000000000000000000000000000000008152600401611d5890614137565b60405180910390fd5b80600560008573ffffffffffffffffffffffffffffffffffffffff1673ffffffffffffffffffffffffffffffffffffffff16815260200190815260200160002060008473ffffffffffffffffffffffffffffffffffffffff1673ffffffffffffffffffffffffffffffffffffffff16815260200190815260200160002060006101000a81548160ff0219169083151502179055508173ffffffffffffffffffffffffffffffffffffffff168373ffffffffffffffffffffffffffffffffffffffff167f17307eab39ab6107e8899845ad3d59bd9653f200f220920489ca2b5937696c3183604051611e529190612d72565b60405180910390a3505050565b611e6a8484846116d7565b611e76848484846122a6565b611eb5576040517f08c379a0000000000000000000000000000000000000000000000000000000008152600401611eac906141c9565b60405180910390fd5b50505050565b6060600e8054611eca90613456565b80601f0160208091040260200160405190810160405280929190818152602001828054611ef690613456565b8015611f435780601f10611f1857610100808354040283529160200191611f43565b820191906000526020600020905b815481529060010190602001808311611f2657829003601f168201915b5050505050905090565b6060611f588261140a565b6000611f62611ebb565b90506000815111611f825760405180602001604052806000815250611fad565b80611f8c84611ac8565b604051602001611f9d9291906141e9565b6040516020818303038152906040525b915050919050565b60007f80ac58cd000000000000000000000000000000000000000000000000000000007bffffffffffffffffffffffffffffffffffffffffffffffffffffffff1916827bffffffffffffffffffffffffffffffffffffffffffffffffffffffff1916148061208057507f5b5e139f000000000000000000000000000000000000000000000000000000007bffffffffffffffffffffffffffffffffffffffffffffffffffffffff1916827bffffffffffffffffffffffffffffffffffffffffffffffffffffffff1916145b80612090575061208f8261242d565b5b9050919050565b6120a384848484612497565b50505050565b50505050565b6120b7610d5c565b6120f6576040517f08c379a00000000000000000000000000000000000000000000000000000000081526004016120ed90614259565b60405180910390fd5b565b600080600090507a184f03e93ff9f4daa797ed6e38ed64bf6a1f0100000000000000008310612156577a184f03e93ff9f4daa797ed6e38ed64bf6a1f010000000000000000838161214c5761214b613786565b5b0492506040810190505b6d04ee2d6d415b85acef81000000008310612193576d04ee2d6d415b85acef8100000000838161218957612188613786565b5b0492506020810190505b662386f26fc1000083106121c257662386f26fc1000083816121b8576121b7613786565b5b0492506010810190505b6305f5e10083106121eb576305f5e10083816121e1576121e0613786565b5b0492506008810190505b612710831061221057612710838161220657612205613786565b5b0492506004810190505b60648310612233576064838161222957612228613786565b5b0492506002810190505b600a8310612242576001810190505b80915050919050565b61225583836125f5565b61226260008484846122a6565b6122a1576040517f08c379a0000000000000000000000000000000000000000000000000000000008152600401612298906141c9565b60405180910390fd5b505050565b60006122c78473ffffffffffffffffffffffffffffffffffffffff16612812565b15612420578373ffffffffffffffffffffffffffffffffffffffff1663150b7a026122f0611455565b8786866040518563ffffffff1660e01b815260040161231294939291906142ce565b6020604051808303816000875af192505050801561234e57506040513d601f19601f8201168201806040525081019061234b919061432f565b60015b6123d0573d806000811461237e576040519150601f19603f3d011682016040523d82523d6000602084013e612383565b606091505b5060008151036123c8576040517f08c379a00000000000000000000000000000000000000000000000000000000081526004016123bf906141c9565b60405180910390fd5b805181602001fd5b63150b7a0260e01b7bffffffffffffffffffffffffffffffffffffffffffffffffffffffff1916817bffffffffffffffffffffffffffffffffffffffffffffffffffffffff191614915050612425565b600190505b949350505050565b60007f01ffc9a7000000000000000000000000000000000000000000000000000000007bffffffffffffffffffffffffffffffffffffffffffffffffffffffff1916827bffffffffffffffffffffffffffffffffffffffffffffffffffffffff1916149050919050565b6124a384848484612835565b60018111156124e7576040517f08c379a00000000000000000000000000000000000000000000000000000000081526004016124de906143ce565b60405180910390fd5b6000829050600073ffffffffffffffffffffffffffffffffffffffff168573ffffffffffffffffffffffffffffffffffffffff160361252e576125298161295b565b61256d565b8373ffffffffffffffffffffffffffffffffffffffff168573ffffffffffffffffffffffffffffffffffffffff161461256c5761256b85826129a4565b5b5b600073ffffffffffffffffffffffffffffffffffffffff168473ffffffffffffffffffffffffffffffffffffffff16036125af576125aa81612b11565b6125ee565b8473ffffffffffffffffffffffffffffffffffffffff168473ffffffffffffffffffffffffffffffffffffffff16146125ed576125ec8482612be2565b5b5b5050505050565b600073ffffffffffffffffffffffffffffffffffffffff168273ffffffffffffffffffffffffffffffffffffffff1603612664576040517f08c379a000000000000000000000000000000000000000000000000000000000815260040161265b9061443a565b60405180910390fd5b61266d81611594565b156126ad576040517f08c379a00000000000000000000000000000000000000000000000000000000081526004016126a4906144a6565b60405180910390fd5b6126bb600083836001612097565b6126c481611594565b15612704576040517f08c379a00000000000000000000000000000000000000000000000000000000081526004016126fb906144a6565b60405180910390fd5b6001600360008473ffffffffffffffffffffffffffffffffffffffff1673ffffffffffffffffffffffffffffffffffffffff16815260200190815260200160002060008282540192505081905550816002600083815260200190815260200160002060006101000a81548173ffffffffffffffffffffffffffffffffffffffff021916908373ffffffffffffffffffffffffffffffffffffffff160217905550808273ffffffffffffffffffffffffffffffffffffffff16600073ffffffffffffffffffffffffffffffffffffffff167fddf252ad1be2c89b69c2b068fc378daa952ba7f163c4a11628f55a4df523b3ef60405160405180910390a461280e6000838360016120a9565b5050565b6000808273ffffffffffffffffffffffffffffffffffffffff163b119050919050565b600181111561295557600073ffffffffffffffffffffffffffffffffffffffff168473ffffffffffffffffffffffffffffffffffffffff16146128c95780600360008673ffffffffffffffffffffffffffffffffffffffff1673ffffffffffffffffffffffffffffffffffffffff16815260200190815260200160002060008282546128c191906144c6565b925050819055505b600073ffffffffffffffffffffffffffffffffffffffff168373ffffffffffffffffffffffffffffffffffffffff16146129545780600360008573ffffffffffffffffffffffffffffffffffffffff1673ffffffffffffffffffffffffffffffffffffffff168152602001908152602001600020600082825461294c91906144fa565b925050819055505b5b50505050565b6008805490506009600083815260200190815260200160002081905550600881908060018154018082558091505060019003906000526020600020016000909190919091505550565b600060016129b184610f0c565b6129bb91906144c6565b9050600060076000848152602001908152602001600020549050818114612aa0576000600660008673ffffffffffffffffffffffffffffffffffffffff1673ffffffffffffffffffffffffffffffffffffffff168152602001908152602001600020600084815260200190815260200160002054905080600660008773ffffffffffffffffffffffffffffffffffffffff1673ffffffffffffffffffffffffffffffffffffffff168152602001908152602001600020600084815260200190815260200160002081905550816007600083815260200190815260200160002081905550505b6007600084815260200190815260200160002060009055600660008573ffffffffffffffffffffffffffffffffffffffff1673ffffffffffffffffffffffffffffffffffffffff16815260200190815260200160002060008381526020019081526020016000206000905550505050565b60006001600880549050612b2591906144c6565b9050600060096000848152602001908152602001600020549050600060088381548110612b5557612b5461390a565b5b906000526020600020015490508060088381548110612b7757612b7661390a565b5b906000526020600020018190555081600960008381526020019081526020016000208190555060096000858152602001908152602001600020600090556008805480612bc657612bc561452e565b5b6001900381819060005260206000200160009055905550505050565b6000612bed83610f0c565b905081600660008573ffffffffffffffffffffffffffffffffffffffff1673ffffffffffffffffffffffffffffffffffffffff168152602001908152602001600020600083815260200190815260200160002081905550806007600084815260200190815260200160002081905550505050565b508054612c6d90613456565b6000825580601f10612c7f5750612c9e565b601f016020900490600052602060002090810190612c9d9190612ca1565b5b50565b5b80821115612cba576000816000905550600101612ca2565b5090565b6000604051905090565b600080fd5b600080fd5b60007fffffffff0000000000000000000000000000000000000000000000000000000082169050919050565b612d0781612cd2565b8114612d1257600080fd5b50565b600081359050612d2481612cfe565b92915050565b600060208284031215612d4057612d3f612cc8565b5b6000612d4e84828501612d15565b91505092915050565b60008115159050919050565b612d6c81612d57565b82525050565b6000602082019050612d876000830184612d63565b92915050565b600081519050919050565b600082825260208201905092915050565b60005b83811015612dc7578082015181840152602081019050612dac565b60008484015250505050565b6000601f19601f8301169050919050565b6000612def82612d8d565b612df98185612d98565b9350612e09818560208601612da9565b612e1281612dd3565b840191505092915050565b60006020820190508181036000830152612e378184612de4565b905092915050565b6000819050919050565b612e5281612e3f565b8114612e5d57600080fd5b50565b600081359050612e6f81612e49565b92915050565b600060208284031215612e8b57612e8a612cc8565b5b6000612e9984828501612e60565b91505092915050565b600073ffffffffffffffffffffffffffffffffffffffff82169050919050565b6000612ecd82612ea2565b9050919050565b612edd81612ec2565b82525050565b6000602082019050612ef86000830184612ed4565b92915050565b612f0781612ec2565b8114612f1257600080fd5b50565b600081359050612f2481612efe565b92915050565b60008060408385031215612f4157612f40612cc8565b5b6000612f4f85828601612f15565b9250506020612f6085828601612e60565b9150509250929050565b600060208284031215612f8057612f7f612cc8565b5b6000612f8e84828501612f15565b91505092915050565b612fa081612e3f565b82525050565b6000602082019050612fbb6000830184612f97565b92915050565b600080fd5b600080fd5b7f4e487b7100000000000000000000000000000000000000000000000000000000600052604160045260246000fd5b61300382612dd3565b810181811067ffffffffffffffff8211171561302257613021612fcb565b5b80604052505050565b6000613035612cbe565b90506130418282612ffa565b919050565b600067ffffffffffffffff82111561306157613060612fcb565b5b61306a82612dd3565b9050602081019050919050565b82818337600083830152505050565b600061309961309484613046565b61302b565b9050828152602081018484840111156130b5576130b4612fc6565b5b6130c0848285613077565b509392505050565b600082601f8301126130dd576130dc612fc1565b5b81356130ed848260208601613086565b91505092915050565b6000806040838503121561310d5761310c612cc8565b5b600061311b85828601612e60565b925050602083013567ffffffffffffffff81111561313c5761313b612ccd565b5b613148858286016130c8565b9150509250929050565b60008060006060848603121561316b5761316a612cc8565b5b600061317986828701612f15565b935050602061318a86828701612f15565b925050604061319b86828701612e60565b9150509250925092565b600080604083850312156131bc576131bb612cc8565b5b60006131ca85828601612e60565b92505060206131db85828601612e60565b9150509250929050565b60006040820190506131fa6000830185612ed4565b6132076020830184612f97565b9392505050565b60006020828403121561322457613223612cc8565b5b600082013567ffffffffffffffff81111561324257613241612ccd565b5b61324e848285016130c8565b91505092915050565b61326081612d57565b811461326b57600080fd5b50565b60008135905061327d81613257565b92915050565b6000806040838503121561329a57613299612cc8565b5b60006132a885828601612f15565b92505060206132b98582860161326e565b9150509250929050565b600067ffffffffffffffff8211156132de576132dd612fcb565b5b6132e782612dd3565b9050602081019050919050565b6000613307613302846132c3565b61302b565b90508281526020810184848401111561332357613322612fc6565b5b61332e848285613077565b509392505050565b600082601f83011261334b5761334a612fc1565b5b813561335b8482602086016132f4565b91505092915050565b6000806000806080858703121561337e5761337d612cc8565b5b600061338c87828801612f15565b945050602061339d87828801612f15565b93505060406133ae87828801612e60565b925050606085013567ffffffffffffffff8111156133cf576133ce612ccd565b5b6133db87828801613336565b91505092959194509250565b600080604083850312156133fe576133fd612cc8565b5b600061340c85828601612f15565b925050602061341d85828601612f15565b9150509250929050565b7f4e487b7100000000000000000000000000000000000000000000000000000000600052602260045260246000fd5b6000600282049050600182168061346e57607f821691505b60208210810361348157613480613427565b5b50919050565b7f4552433732313a20617070726f76616c20746f2063757272656e74206f776e6560008201527f7200000000000000000000000000000000000000000000000000000000000000602082015250565b60006134e3602183612d98565b91506134ee82613487565b604082019050919050565b60006020820190508181036000830152613512816134d6565b9050919050565b7f4552433732313a20617070726f76652063616c6c6572206973206e6f7420746f60008201527f6b656e206f776e6572206f7220617070726f76656420666f7220616c6c000000602082015250565b6000613575603d83612d98565b915061358082613519565b604082019050919050565b600060208201905081810360008301526135a481613568565b9050919050565b7f546f6b656e20646f6573206e6f74206578697374000000000000000000000000600082015250565b60006135e1601483612d98565b91506135ec826135ab565b602082019050919050565b60006020820190508181036000830152613610816135d4565b9050919050565b7f546f6b656e2055524920616c7265616479207570646174656400000000000000600082015250565b600061364d601983612d98565b915061365882613617565b602082019050919050565b6000602082019050818103600083015261367c81613640565b9050919050565b7f4552433732313a2063616c6c6572206973206e6f7420746f6b656e206f776e6560008201527f72206f7220617070726f76656400000000000000000000000000000000000000602082015250565b60006136df602d83612d98565b91506136ea82613683565b604082019050919050565b6000602082019050818103600083015261370e816136d2565b9050919050565b7f4e487b7100000000000000000000000000000000000000000000000000000000600052601160045260246000fd5b600061374f82612e3f565b915061375a83612e3f565b925082820261376881612e3f565b9150828204841483151761377f5761377e613715565b5b5092915050565b7f4e487b7100000000000000000000000000000000000000000000000000000000600052601260045260246000fd5b60006137c082612e3f565b91506137cb83612e3f565b9250826137db576137da613786565b5b828204905092915050565b7f455243373231456e756d657261626c653a206f776e657220696e646578206f7560008201527f74206f6620626f756e6473000000000000000000000000000000000000000000602082015250565b6000613842602b83612d98565b915061384d826137e6565b604082019050919050565b6000602082019050818103600083015261387181613835565b9050919050565b7f455243373231456e756d657261626c653a20676c6f62616c20696e646578206f60008201527f7574206f6620626f756e64730000000000000000000000000000000000000000602082015250565b60006138d4602c83612d98565b91506138df82613878565b604082019050919050565b60006020820190508181036000830152613903816138c7565b9050919050565b7f4e487b7100000000000000000000000000000000000000000000000000000000600052603260045260246000fd5b7f4552433732313a20696e76616c696420746f6b656e2049440000000000000000600082015250565b600061396f601883612d98565b915061397a82613939565b602082019050919050565b6000602082019050818103600083015261399e81613962565b9050919050565b7f4d617820737570706c7920726561636865640000000000000000000000000000600082015250565b60006139db601283612d98565b91506139e6826139a5565b602082019050919050565b60006020820190508181036000830152613a0a816139ce565b9050919050565b600081905092915050565b6000613a2782612d8d565b613a318185613a11565b9350613a41818560208601612da9565b80840191505092915050565b7f2e6a736f6e000000000000000000000000000000000000000000000000000000600082015250565b6000613a83600583613a11565b9150613a8e82613a4d565b600582019050919050565b6000613aa58284613a1c565b9150613ab082613a76565b915081905092915050565b7f4552433732313a2061646472657373207a65726f206973206e6f74206120766160008201527f6c6964206f776e65720000000000000000000000000000000000000000000000602082015250565b6000613b17602983612d98565b9150613b2282613abb565b604082019050919050565b60006020820190508181036000830152613b4681613b0a565b9050919050565b60008190508160005260206000209050919050565b60006020601f8301049050919050565b600082821b905092915050565b600060088302613baf7fffffffffffffffffffffffffffffffffffffffffffffffffffffffffffffffff82613b72565b613bb98683613b72565b95508019841693508086168417925050509392505050565b6000819050919050565b6000613bf6613bf1613bec84612e3f565b613bd1565b612e3f565b9050919050565b6000819050919050565b613c1083613bdb565b613c24613c1c82613bfd565b848454613b7f565b825550505050565b600090565b613c39613c2c565b613c44818484613c07565b505050565b5b81811015613c6857613c5d600082613c31565b600181019050613c4a565b5050565b601f821115613cad57613c7e81613b4d565b613c8784613b62565b81016020851015613c96578190505b613caa613ca285613b62565b830182613c49565b50505b505050565b600082821c905092915050565b6000613cd060001984600802613cb2565b1980831691505092915050565b6000613ce98383613cbf565b9150826002028217905092915050565b613d0282612d8d565b67ffffffffffffffff811115613d1b57613d1a612fcb565b5b613d258254613456565b613d30828285613c6c565b600060209050601f831160018114613d635760008415613d51578287015190505b613d5b8582613cdd565b865550613dc3565b601f198416613d7186613b4d565b60005b82811015613d9957848901518255600182019150602085019450602081019050613d74565b86831015613db65784890151613db2601f891682613cbf565b8355505b6001600288020188555050505b505050505050565b7f4f776e61626c653a206e6577206f776e657220697320746865207a65726f206160008201527f6464726573730000000000000000000000000000000000000000000000000000602082015250565b6000613e27602683612d98565b9150613e3282613dcb565b604082019050919050565b60006020820190508181036000830152613e5681613e1a565b9050919050565b7f4f776e61626c653a2063616c6c6572206973206e6f7420746865206f776e6572600082015250565b6000613e93602083612d98565b9150613e9e82613e5d565b602082019050919050565b60006020820190508181036000830152613ec281613e86565b9050919050565b7f45524337323155524953746f726167653a2055524920736574206f66206e6f6e60008201527f6578697374656e7420746f6b656e000000000000000000000000000000000000602082015250565b6000613f25602e83612d98565b9150613f3082613ec9565b604082019050919050565b60006020820190508181036000830152613f5481613f18565b9050919050565b7f4552433732313a207472616e736665722066726f6d20696e636f72726563742060008201527f6f776e6572000000000000000000000000000000000000000000000000000000602082015250565b6000613fb7602583612d98565b9150613fc282613f5b565b604082019050919050565b60006020820190508181036000830152613fe681613faa565b9050919050565b7f4552433732313a207472616e7366657220746f20746865207a65726f2061646460008201527f7265737300000000000000000000000000000000000000000000000000000000602082015250565b6000614049602483612d98565b915061405482613fed565b604082019050919050565b600060208201905081810360008301526140788161403c565b9050919050565b7f5061757361626c653a2070617573656400000000000000000000000000000000600082015250565b60006140b5601083612d98565b91506140c08261407f565b602082019050919050565b600060208201905081810360008301526140e4816140a8565b9050919050565b7f4552433732313a20617070726f766520746f2063616c6c657200000000000000600082015250565b6000614121601983612d98565b915061412c826140eb565b602082019050919050565b6000602082019050818103600083015261415081614114565b9050919050565b7f4552433732313a207472616e7366657220746f206e6f6e20455243373231526560008201527f63656976657220696d706c656d656e7465720000000000000000000000000000602082015250565b60006141b3603283612d98565b91506141be82614157565b604082019050919050565b600060208201905081810360008301526141e2816141a6565b9050919050565b60006141f58285613a1c565b91506142018284613a1c565b91508190509392505050565b7f5061757361626c653a206e6f7420706175736564000000000000000000000000600082015250565b6000614243601483612d98565b915061424e8261420d565b602082019050919050565b6000602082019050818103600083015261427281614236565b9050919050565b600081519050919050565b600082825260208201905092915050565b60006142a082614279565b6142aa8185614284565b93506142ba818560208601612da9565b6142c381612dd3565b840191505092915050565b60006080820190506142e36000830187612ed4565b6142f06020830186612ed4565b6142fd6040830185612f97565b818103606083015261430f8184614295565b905095945050505050565b60008151905061432981612cfe565b92915050565b60006020828403121561434557614344612cc8565b5b60006143538482850161431a565b91505092915050565b7f455243373231456e756d657261626c653a20636f6e736563757469766520747260008201527f616e7366657273206e6f7420737570706f727465640000000000000000000000602082015250565b60006143b8603583612d98565b91506143c38261435c565b604082019050919050565b600060208201905081810360008301526143e7816143ab565b9050919050565b7f4552433732313a206d696e7420746f20746865207a65726f2061646472657373600082015250565b6000614424602083612d98565b915061442f826143ee565b602082019050919050565b6000602082019050818103600083015261445381614417565b9050919050565b7f4552433732313a20746f6b656e20616c7265616479206d696e74656400000000600082015250565b6000614490601c83612d98565b915061449b8261445a565b602082019050919050565b600060208201905081810360008301526144bf81614483565b9050919050565b60006144d182612e3f565b91506144dc83612e3f565b92508282039050818111156144f4576144f3613715565b5b92915050565b600061450582612e3f565b915061451083612e3f565b925082820190508082111561452857614527613715565b5b92915050565b7f4e487b7100000000000000000000000000000000000000000000000000000000600052603160045260246000fdfea2646970667358221220303d424b345c6825397fae8b16bf1366ff205a001e1dc900b32d7fc5e095f25864736f6c63430008110033",
  "immutableReferences": {
    "3275": [
      {
        "length": 32,
        "start": 3587
      },
      {
        "length": 32,
        "start": 4695
      }
    ]
  },
  "source": "// SPDX-License-Identifier: MIT\npragma solidity ^0.8.17;\n\nimport \"@openzeppelin/contracts/token/ERC721/ERC721.sol\";\nimport \"@openzeppelin/contracts/token/ERC721/extensions/ERC721Enumerable.sol\";\nimport \"@openzeppelin/contracts/interfaces/IERC2981.sol\";\nimport \"@openzeppelin/contracts/security/Pausable.sol\";\nimport \"@openzeppelin/contracts/access/Ownable.sol\";\nimport \"@openzeppelin/contracts/utils/Counters.sol\";\nimport \"@openzeppelin/contracts/utils/Strings.sol\";\n\n/// @custom:security-contact contact@altify.io\ncontract PixelChads is ERC721, ERC721Enumerable, IERC2981, Pausable, Ownable {\n    using Counters for Counters.Counter;\n    using Strings for uint256;\n\n    Counters.Counter private _tokenIdCounter;\n\n    event tokenMinted(address indexed to, uint256 indexed tokenId);\n    event tokenUpdated(uint256 indexed tokenId);\n\n    uint256 public immutable maxSupply = 500;\n    uint256 public collectionRoyaltyAmount = 100; // 10%\n    string private contractURI;\n    string private baseURI;\n    \n    address public paymentReceiver;\n    mapping(uint256 => bool) tokenHasUpdated;\n    mapping(uint256 => string) private _tokenURIs;\n\n    constructor(string memory _contractURI, string memory _startingBaseURI) ERC721(\"PixelChads\", \"CHAD\") {\n        //Contract URI links to JSON file containing information about the contract (royalties etc.)\n        contractURI = _contractURI;\n        paymentReceiver = msg.sender;\n        baseURI = _startingBaseURI;\n    }\n\n    //Fallback function incase someone sends tokens to the contract\n    receive() external payable {}\n\n    function _baseURI() internal view override returns (string memory) {\n        return baseURI;\n    }\n\n    function safeMint() public whenNotPaused {\n        require(_tokenIdCounter.current() < maxSupply, \"Max supply reached\");\n        uint256 tokenId = _tokenIdCounter.current();\n        string memory uri = string(abi.encodePacked(tokenId.toString(), \".json\"));\n        _tokenIdCounter.increment();\n        emit tokenMinted(msg.sender, tokenId);\n        _safeMint(msg.sender, tokenId);\n        _setTokenURI(tokenId, uri);\n    }\n\n    function updateTokenURI(uint256 tokenId, string memory uri) public onlyOwner {\n        require(_exists(tokenId), \"Token does not exist\");\n        require(tokenHasUpdated[tokenId] == false, \"Token URI already updated\");\n        tokenHasUpdated[tokenId] = true;\n        emit tokenUpdated(tokenId);\n\n        delete _tokenURIs[tokenId];\n        \n        \n        _setTokenURI(tokenId, uri);\n    }\n\n    function updatePaymentReceiver(address _paymentReceiver) public onlyOwner {\n        paymentReceiver =  _paymentReceiver;\n    }\n\n    function updateContractURI(string memory _contractURI) public onlyOwner {\n        contractURI = _contractURI;\n    }\n\n    function withdraw() public onlyOwner whenNotPaused {\n        uint256 balance = address(this).balance;\n        payable(paymentReceiver).transfer(balance);\n    }\n\n    function pause() public onlyOwner {\n        _pause();\n    }\n\n    function unpause() public onlyOwner {\n        _unpause();\n    }\n\n    // The following functions are overrides required by Solidity.\n\n    function _beforeTokenTransfer(address from, address to, uint256 tokenId, uint256 batchSize)\n        internal\n        override(ERC721, ERC721Enumerable)\n    {\n        super._beforeTokenTransfer(from, to, tokenId, batchSize);\n    }\n\n    function _burn(uint256 tokenId) internal override(ERC721) {\n        super._burn(tokenId);\n    }\n\n    function supportsInterface(bytes4 interfaceId)\n        public\n        view\n        override(ERC721, ERC721Enumerable, IERC165)\n        returns (bool)\n    {\n        return super.supportsInterface(interfaceId);\n    }\n\n\n    //--------------------------------------------- ERC721 URI Storage Function Overrides --------------------------------------------\n    function tokenURI(uint256 tokenId) public view virtual override returns (string memory) {\n        _requireMinted(tokenId);\n\n        string memory _tokenURI = _tokenURIs[tokenId];\n        string memory base = _baseURI();\n\n        // If there is no base URI, return the token URI.\n        if (bytes(base).length == 0) {\n            return _tokenURI;\n        }\n        // If both are set, concatenate the baseURI and tokenURI (via abi.encodePacked).\n        if (bytes(_tokenURI).length > 0) {\n            return string(_tokenURI);\n        }\n\n        return super.tokenURI(tokenId);\n    }\n\n    function _setTokenURI(uint256 tokenId, string memory _tokenURI) internal {\n        require(_exists(tokenId), \"ERC721URIStorage: URI set of nonexistent token\");\n        _tokenURIs[tokenId] = _tokenURI;\n    }\n\n    //--------------------------------------------------------------------------------------------------------------------\n\n    /// IERC2981 Royalty Enforcement\n    function royaltyInfo(uint256 , uint256 salePrice)\n    external\n    view\n    returns (address receiver, uint256 royaltyAmount)\n    {\n        // calculate the amount of royalties\n        uint256 _royaltyAmount = (salePrice * collectionRoyaltyAmount) / 1000; // 10%\n        // return the amount of royalties and the recipient collection address\n        return (paymentReceiver, _royaltyAmount);\n    }\n\n}",
  "sourcePath": "/mnt/c/Users/danie/OneDrive/Desktop/Programming/nft/pixelchads/contracts/pixelchads.sol",
  "compiler": {
    "name": "solc",
    "version": "0.8.17+commit.8df45f5f.Emscripten.clang"
  },
  "schemaVersion": "3.4.11",
  "updatedAt": "2023-02-15T19:53:12.818Z",
  "devdoc": {
    "custom:security-contact": "contact@altify.io",
    "kind": "dev",
    "methods": {
      "approve(address,uint256)": {
        "details": "See {IERC721-approve}."
      },
      "balanceOf(address)": {
        "details": "See {IERC721-balanceOf}."
      },
      "getApproved(uint256)": {
        "details": "See {IERC721-getApproved}."
      },
      "isApprovedForAll(address,address)": {
        "details": "See {IERC721-isApprovedForAll}."
      },
      "name()": {
        "details": "See {IERC721Metadata-name}."
      },
      "owner()": {
        "details": "Returns the address of the current owner."
      },
      "ownerOf(uint256)": {
        "details": "See {IERC721-ownerOf}."
      },
      "paused()": {
        "details": "Returns true if the contract is paused, and false otherwise."
      },
      "renounceOwnership()": {
        "details": "Leaves the contract without owner. It will not be possible to call `onlyOwner` functions anymore. Can only be called by the current owner. NOTE: Renouncing ownership will leave the contract without an owner, thereby removing any functionality that is only available to the owner."
      },
      "safeTransferFrom(address,address,uint256)": {
        "details": "See {IERC721-safeTransferFrom}."
      },
      "safeTransferFrom(address,address,uint256,bytes)": {
        "details": "See {IERC721-safeTransferFrom}."
      },
      "setApprovalForAll(address,bool)": {
        "details": "See {IERC721-setApprovalForAll}."
      },
      "symbol()": {
        "details": "See {IERC721Metadata-symbol}."
      },
      "tokenByIndex(uint256)": {
        "details": "See {IERC721Enumerable-tokenByIndex}."
      },
      "tokenOfOwnerByIndex(address,uint256)": {
        "details": "See {IERC721Enumerable-tokenOfOwnerByIndex}."
      },
      "tokenURI(uint256)": {
        "details": "See {IERC721Metadata-tokenURI}."
      },
      "totalSupply()": {
        "details": "See {IERC721Enumerable-totalSupply}."
      },
      "transferFrom(address,address,uint256)": {
        "details": "See {IERC721-transferFrom}."
      },
      "transferOwnership(address)": {
        "details": "Transfers ownership of the contract to a new account (`newOwner`). Can only be called by the current owner."
      }
    },
    "version": 1
  },
  "userdoc": {
    "kind": "user",
    "methods": {
      "royaltyInfo(uint256,uint256)": {
        "notice": "IERC2981 Royalty Enforcement"
      }
    },
    "version": 1
  }
}