{
  "contractName": "PixelChads",
  "abi": [
    {
      "inputs": [
        {
          "internalType": "string",
          "name": "_contractURI",
          "type": "string"
        },
        {
          "internalType": "string",
          "name": "_startingBaseURI",
          "type": "string"
        }
      ],
      "stateMutability": "nonpayable",
      "type": "constructor"
    },
    {
      "anonymous": false,
      "inputs": [
        {
          "indexed": true,
          "internalType": "address",
          "name": "owner",
          "type": "address"
        },
        {
          "indexed": true,
          "internalType": "address",
          "name": "approved",
          "type": "address"
        },
        {
          "indexed": true,
          "internalType": "uint256",
          "name": "tokenId",
          "type": "uint256"
        }
      ],
      "name": "Approval",
      "type": "event"
    },
    {
      "anonymous": false,
      "inputs": [
        {
          "indexed": true,
          "internalType": "address",
          "name": "owner",
          "type": "address"
        },
        {
          "indexed": true,
          "internalType": "address",
          "name": "operator",
          "type": "address"
        },
        {
          "indexed": false,
          "internalType": "bool",
          "name": "approved",
          "type": "bool"
        }
      ],
      "name": "ApprovalForAll",
      "type": "event"
    },
    {
      "anonymous": false,
      "inputs": [
        {
          "indexed": true,
          "internalType": "address",
          "name": "previousOwner",
          "type": "address"
        },
        {
          "indexed": true,
          "internalType": "address",
          "name": "newOwner",
          "type": "address"
        }
      ],
      "name": "OwnershipTransferred",
      "type": "event"
    },
    {
      "anonymous": false,
      "inputs": [
        {
          "indexed": false,
          "internalType": "address",
          "name": "account",
          "type": "address"
        }
      ],
      "name": "Paused",
      "type": "event"
    },
    {
      "anonymous": false,
      "inputs": [
        {
          "indexed": true,
          "internalType": "address",
          "name": "from",
          "type": "address"
        },
        {
          "indexed": true,
          "internalType": "address",
          "name": "to",
          "type": "address"
        },
        {
          "indexed": true,
          "internalType": "uint256",
          "name": "tokenId",
          "type": "uint256"
        }
      ],
      "name": "Transfer",
      "type": "event"
    },
    {
      "anonymous": false,
      "inputs": [
        {
          "indexed": false,
          "internalType": "address",
          "name": "account",
          "type": "address"
        }
      ],
      "name": "Unpaused",
      "type": "event"
    },
    {
      "anonymous": false,
      "inputs": [
        {
          "indexed": true,
          "internalType": "address",
          "name": "to",
          "type": "address"
        },
        {
          "indexed": true,
          "internalType": "uint256",
          "name": "tokenId",
          "type": "uint256"
        }
      ],
      "name": "tokenMinted",
      "type": "event"
    },
    {
      "anonymous": false,
      "inputs": [
        {
          "indexed": true,
          "internalType": "uint256",
          "name": "tokenId",
          "type": "uint256"
        }
      ],
      "name": "tokenUpdated",
      "type": "event"
    },
    {
      "inputs": [
        {
          "internalType": "address",
          "name": "to",
          "type": "address"
        },
        {
          "internalType": "uint256",
          "name": "tokenId",
          "type": "uint256"
        }
      ],
      "name": "approve",
      "outputs": [],
      "stateMutability": "nonpayable",
      "type": "function"
    },
    {
      "inputs": [
        {
          "internalType": "address",
          "name": "owner",
          "type": "address"
        }
      ],
      "name": "balanceOf",
      "outputs": [
        {
          "internalType": "uint256",
          "name": "",
          "type": "uint256"
        }
      ],
      "stateMutability": "view",
      "type": "function"
    },
    {
      "inputs": [],
      "name": "collectionRoyaltyAmount",
      "outputs": [
        {
          "internalType": "uint256",
          "name": "",
          "type": "uint256"
        }
      ],
      "stateMutability": "view",
      "type": "function"
    },
    {
      "inputs": [
        {
          "internalType": "uint256",
          "name": "tokenId",
          "type": "uint256"
        }
      ],
      "name": "getApproved",
      "outputs": [
        {
          "internalType": "address",
          "name": "",
          "type": "address"
        }
      ],
      "stateMutability": "view",
      "type": "function"
    },
    {
      "inputs": [
        {
          "internalType": "address",
          "name": "owner",
          "type": "address"
        },
        {
          "internalType": "address",
          "name": "operator",
          "type": "address"
        }
      ],
      "name": "isApprovedForAll",
      "outputs": [
        {
          "internalType": "bool",
          "name": "",
          "type": "bool"
        }
      ],
      "stateMutability": "view",
      "type": "function"
    },
    {
      "inputs": [],
      "name": "maxMint",
      "outputs": [
        {
          "internalType": "uint256",
          "name": "",
          "type": "uint256"
        }
      ],
      "stateMutability": "view",
      "type": "function"
    },
    {
      "inputs": [],
      "name": "maxSupply",
      "outputs": [
        {
          "internalType": "uint256",
          "name": "",
          "type": "uint256"
        }
      ],
      "stateMutability": "view",
      "type": "function"
    },
    {
      "inputs": [
        {
          "internalType": "address",
          "name": "",
          "type": "address"
        }
      ],
      "name": "mintedTokens",
      "outputs": [
        {
          "internalType": "uint256",
          "name": "",
          "type": "uint256"
        }
      ],
      "stateMutability": "view",
      "type": "function"
    },
    {
      "inputs": [],
      "name": "name",
      "outputs": [
        {
          "internalType": "string",
          "name": "",
          "type": "string"
        }
      ],
      "stateMutability": "view",
      "type": "function"
    },
    {
      "inputs": [],
      "name": "owner",
      "outputs": [
        {
          "internalType": "address",
          "name": "",
          "type": "address"
        }
      ],
      "stateMutability": "view",
      "type": "function"
    },
    {
      "inputs": [
        {
          "internalType": "uint256",
          "name": "tokenId",
          "type": "uint256"
        }
      ],
      "name": "ownerOf",
      "outputs": [
        {
          "internalType": "address",
          "name": "",
          "type": "address"
        }
      ],
      "stateMutability": "view",
      "type": "function"
    },
    {
      "inputs": [],
      "name": "paused",
      "outputs": [
        {
          "internalType": "bool",
          "name": "",
          "type": "bool"
        }
      ],
      "stateMutability": "view",
      "type": "function"
    },
    {
      "inputs": [],
      "name": "paymentReceiver",
      "outputs": [
        {
          "internalType": "address",
          "name": "",
          "type": "address"
        }
      ],
      "stateMutability": "view",
      "type": "function"
    },
    {
      "inputs": [],
      "name": "renounceOwnership",
      "outputs": [],
      "stateMutability": "nonpayable",
      "type": "function"
    },
    {
      "inputs": [
        {
          "internalType": "address",
          "name": "from",
          "type": "address"
        },
        {
          "internalType": "address",
          "name": "to",
          "type": "address"
        },
        {
          "internalType": "uint256",
          "name": "tokenId",
          "type": "uint256"
        }
      ],
      "name": "safeTransferFrom",
      "outputs": [],
      "stateMutability": "nonpayable",
      "type": "function"
    },
    {
      "inputs": [
        {
          "internalType": "address",
          "name": "from",
          "type": "address"
        },
        {
          "internalType": "address",
          "name": "to",
          "type": "address"
        },
        {
          "internalType": "uint256",
          "name": "tokenId",
          "type": "uint256"
        },
        {
          "internalType": "bytes",
          "name": "data",
          "type": "bytes"
        }
      ],
      "name": "safeTransferFrom",
      "outputs": [],
      "stateMutability": "nonpayable",
      "type": "function"
    },
    {
      "inputs": [
        {
          "internalType": "address",
          "name": "operator",
          "type": "address"
        },
        {
          "internalType": "bool",
          "name": "approved",
          "type": "bool"
        }
      ],
      "name": "setApprovalForAll",
      "outputs": [],
      "stateMutability": "nonpayable",
      "type": "function"
    },
    {
      "inputs": [],
      "name": "symbol",
      "outputs": [
        {
          "internalType": "string",
          "name": "",
          "type": "string"
        }
      ],
      "stateMutability": "view",
      "type": "function"
    },
    {
      "inputs": [
        {
          "internalType": "uint256",
          "name": "index",
          "type": "uint256"
        }
      ],
      "name": "tokenByIndex",
      "outputs": [
        {
          "internalType": "uint256",
          "name": "",
          "type": "uint256"
        }
      ],
      "stateMutability": "view",
      "type": "function"
    },
    {
      "inputs": [
        {
          "internalType": "address",
          "name": "owner",
          "type": "address"
        },
        {
          "internalType": "uint256",
          "name": "index",
          "type": "uint256"
        }
      ],
      "name": "tokenOfOwnerByIndex",
      "outputs": [
        {
          "internalType": "uint256",
          "name": "",
          "type": "uint256"
        }
      ],
      "stateMutability": "view",
      "type": "function"
    },
    {
      "inputs": [],
      "name": "totalSupply",
      "outputs": [
        {
          "internalType": "uint256",
          "name": "",
          "type": "uint256"
        }
      ],
      "stateMutability": "view",
      "type": "function"
    },
    {
      "inputs": [
        {
          "internalType": "address",
          "name": "from",
          "type": "address"
        },
        {
          "internalType": "address",
          "name": "to",
          "type": "address"
        },
        {
          "internalType": "uint256",
          "name": "tokenId",
          "type": "uint256"
        }
      ],
      "name": "transferFrom",
      "outputs": [],
      "stateMutability": "nonpayable",
      "type": "function"
    },
    {
      "inputs": [
        {
          "internalType": "address",
          "name": "newOwner",
          "type": "address"
        }
      ],
      "name": "transferOwnership",
      "outputs": [],
      "stateMutability": "nonpayable",
      "type": "function"
    },
    {
      "stateMutability": "payable",
      "type": "receive"
    },
    {
      "inputs": [],
      "name": "safeMint",
      "outputs": [],
      "stateMutability": "nonpayable",
      "type": "function"
    },
    {
      "inputs": [
        {
          "internalType": "uint256",
          "name": "tokenId",
          "type": "uint256"
        },
        {
          "internalType": "string",
          "name": "uri",
          "type": "string"
        }
      ],
      "name": "updateTokenURI",
      "outputs": [],
      "stateMutability": "nonpayable",
      "type": "function"
    },
    {
      "inputs": [
        {
          "internalType": "address",
          "name": "_paymentReceiver",
          "type": "address"
        }
      ],
      "name": "updatePaymentReceiver",
      "outputs": [],
      "stateMutability": "nonpayable",
      "type": "function"
    },
    {
      "inputs": [
        {
          "internalType": "string",
          "name": "_contractURI",
          "type": "string"
        }
      ],
      "name": "updateContractURI",
      "outputs": [],
      "stateMutability": "nonpayable",
      "type": "function"
    },
    {
      "inputs": [],
      "name": "withdraw",
      "outputs": [],
      "stateMutability": "nonpayable",
      "type": "function"
    },
    {
      "inputs": [],
      "name": "pause",
      "outputs": [],
      "stateMutability": "nonpayable",
      "type": "function"
    },
    {
      "inputs": [],
      "name": "unpause",
      "outputs": [],
      "stateMutability": "nonpayable",
      "type": "function"
    },
    {
      "inputs": [
        {
          "internalType": "bytes4",
          "name": "interfaceId",
          "type": "bytes4"
        }
      ],
      "name": "supportsInterface",
      "outputs": [
        {
          "internalType": "bool",
          "name": "",
          "type": "bool"
        }
      ],
      "stateMutability": "view",
      "type": "function"
    },
    {
      "inputs": [
        {
          "internalType": "uint256",
          "name": "tokenId",
          "type": "uint256"
        }
      ],
      "name": "tokenURI",
      "outputs": [
        {
          "internalType": "string",
          "name": "",
          "type": "string"
        }
      ],
      "stateMutability": "view",
      "type": "function"
    },
    {
      "inputs": [
        {
          "internalType": "uint256",
          "name": "",
          "type": "uint256"
        },
        {
          "internalType": "uint256",
          "name": "salePrice",
          "type": "uint256"
        }
      ],
      "name": "royaltyInfo",
      "outputs": [
        {
          "internalType": "address",
          "name": "receiver",
          "type": "address"
        },
        {
          "internalType": "uint256",
          "name": "royaltyAmount",
          "type": "uint256"
        }
      ],
      "stateMutability": "view",
      "type": "function"
    }
  ],
  "bytecode": "0x60a06040526101f46080908152506064600c553480156200001f57600080fd5b5060405162004e7438038062004e748339818101604052810190620000459190620003e0565b6040518060400160405280600a81526020017f506978656c4368616473000000000000000000000000000000000000000000008152506040518060400160405280600481526020017f43484144000000000000000000000000000000000000000000000000000000008152508160009081620000c29190620006b0565b508060019081620000d49190620006b0565b5050506000600a60006101000a81548160ff02191690831515021790555062000112620001066200017f60201b60201c565b6200018760201b60201c565b81600d9081620001239190620006b0565b5033600f60006101000a81548173ffffffffffffffffffffffffffffffffffffffff021916908373ffffffffffffffffffffffffffffffffffffffff16021790555080600e9081620001769190620006b0565b50505062000797565b600033905090565b6000600a60019054906101000a900473ffffffffffffffffffffffffffffffffffffffff16905081600a60016101000a81548173ffffffffffffffffffffffffffffffffffffffff021916908373ffffffffffffffffffffffffffffffffffffffff1602179055508173ffffffffffffffffffffffffffffffffffffffff168173ffffffffffffffffffffffffffffffffffffffff167f8be0079c531659141344cd1fd0a4f28419497f9722a3daafe3b4186f6b6457e060405160405180910390a35050565b6000604051905090565b600080fd5b600080fd5b600080fd5b600080fd5b6000601f19601f8301169050919050565b7f4e487b7100000000000000000000000000000000000000000000000000000000600052604160045260246000fd5b620002b6826200026b565b810181811067ffffffffffffffff82111715620002d857620002d76200027c565b5b80604052505050565b6000620002ed6200024d565b9050620002fb8282620002ab565b919050565b600067ffffffffffffffff8211156200031e576200031d6200027c565b5b62000329826200026b565b9050602081019050919050565b60005b838110156200035657808201518184015260208101905062000339565b60008484015250505050565b600062000379620003738462000300565b620002e1565b90508281526020810184848401111562000398576200039762000266565b5b620003a584828562000336565b509392505050565b600082601f830112620003c557620003c462000261565b5b8151620003d784826020860162000362565b91505092915050565b60008060408385031215620003fa57620003f962000257565b5b600083015167ffffffffffffffff8111156200041b576200041a6200025c565b5b6200042985828601620003ad565b925050602083015167ffffffffffffffff8111156200044d576200044c6200025c565b5b6200045b85828601620003ad565b9150509250929050565b600081519050919050565b7f4e487b7100000000000000000000000000000000000000000000000000000000600052602260045260246000fd5b60006002820490506001821680620004b857607f821691505b602082108103620004ce57620004cd62000470565b5b50919050565b60008190508160005260206000209050919050565b60006020601f8301049050919050565b600082821b905092915050565b600060088302620005387fffffffffffffffffffffffffffffffffffffffffffffffffffffffffffffffff82620004f9565b620005448683620004f9565b95508019841693508086168417925050509392505050565b6000819050919050565b6000819050919050565b6000620005916200058b62000585846200055c565b62000566565b6200055c565b9050919050565b6000819050919050565b620005ad8362000570565b620005c5620005bc8262000598565b84845462000506565b825550505050565b600090565b620005dc620005cd565b620005e9818484620005a2565b505050565b5b81811015620006115762000605600082620005d2565b600181019050620005ef565b5050565b601f82111562000660576200062a81620004d4565b6200063584620004e9565b8101602085101562000645578190505b6200065d6200065485620004e9565b830182620005ee565b50505b505050565b600082821c905092915050565b6000620006856000198460080262000665565b1980831691505092915050565b6000620006a0838362000672565b9150826002028217905092915050565b620006bb8262000465565b67ffffffffffffffff811115620006d757620006d66200027c565b5b620006e382546200049f565b620006f082828562000615565b600060209050601f83116001811462000728576000841562000713578287015190505b6200071f858262000692565b8655506200078f565b601f1984166200073886620004d4565b60005b8281101562000762578489015182556001820191506020850194506020810190506200073b565b868310156200078257848901516200077e601f89168262000672565b8355505b6001600288020188555050505b505050505050565b6080516146ba620007ba60003960008181610dee015261133601526146ba6000f3fe6080604052600436106101f25760003560e01c80636871ee401161010d57806395d89b41116100a0578063c87b56dd1161006f578063c87b56dd146106cf578063cb37f3b21461070c578063d5abeb0114610737578063e985e9c514610762578063f2fde38b1461079f576101f9565b806395d89b4114610627578063a22cb46514610652578063b88d4fde1461067b578063c7b61007146106a4576101f9565b80637501f741116100dc5780637501f741146105915780637e5b1e24146105bc5780638456cb59146105e55780638da5cb5b146105fc576101f9565b80636871ee40146104e957806370a0823114610500578063715018a61461053d5780637241dfa014610554576101f9565b80632a55205a1161018557806342842e0e1161015457806342842e0e1461041b5780634f6ccce7146104445780635c975abb146104815780636352211e146104ac576101f9565b80632a55205a146103725780632f745c59146103b05780633ccfd60b146103ed5780633f4ba83a14610404576101f9565b80630bdfe46c116101c15780630bdfe46c146102cc57806318160ddd146102f557806318e97fd11461032057806323b872dd14610349576101f9565b806301ffc9a7146101fe57806306fdde031461023b578063081812fc14610266578063095ea7b3146102a3576101f9565b366101f957005b600080fd5b34801561020a57600080fd5b5061022560048036038101906102209190612e09565b6107c8565b6040516102329190612e51565b60405180910390f35b34801561024757600080fd5b506102506107da565b60405161025d9190612efc565b60405180910390f35b34801561027257600080fd5b5061028d60048036038101906102889190612f54565b61086c565b60405161029a9190612fc2565b60405180910390f35b3480156102af57600080fd5b506102ca60048036038101906102c59190613009565b6108b2565b005b3480156102d857600080fd5b506102f360048036038101906102ee9190613049565b6109c9565b005b34801561030157600080fd5b5061030a610a15565b6040516103179190613085565b60405180910390f35b34801561032c57600080fd5b50610347600480360381019061034291906131d5565b610a22565b005b34801561035557600080fd5b50610370600480360381019061036b9190613231565b610acc565b005b34801561037e57600080fd5b5061039960048036038101906103949190613284565b610b2c565b6040516103a79291906132c4565b60405180910390f35b3480156103bc57600080fd5b506103d760048036038101906103d29190613009565b610b7e565b6040516103e49190613085565b60405180910390f35b3480156103f957600080fd5b50610402610c23565b005b34801561041057600080fd5b50610419610ca4565b005b34801561042757600080fd5b50610442600480360381019061043d9190613231565b610cb6565b005b34801561045057600080fd5b5061046b60048036038101906104669190612f54565b610cd6565b6040516104789190613085565b60405180910390f35b34801561048d57600080fd5b50610496610d47565b6040516104a39190612e51565b60405180910390f35b3480156104b857600080fd5b506104d360048036038101906104ce9190612f54565b610d5e565b6040516104e09190612fc2565b60405180910390f35b3480156104f557600080fd5b506104fe610de4565b005b34801561050c57600080fd5b5061052760048036038101906105229190613049565b610fce565b6040516105349190613085565b60405180910390f35b34801561054957600080fd5b50610552611085565b005b34801561056057600080fd5b5061057b60048036038101906105769190613049565b611099565b6040516105889190613085565b60405180910390f35b34801561059d57600080fd5b506105a66110b1565b6040516105b39190613085565b60405180910390f35b3480156105c857600080fd5b506105e360048036038101906105de91906132ed565b6110b6565b005b3480156105f157600080fd5b506105fa6110d1565b005b34801561060857600080fd5b506106116110e3565b60405161061e9190612fc2565b60405180910390f35b34801561063357600080fd5b5061063c61110d565b6040516106499190612efc565b60405180910390f35b34801561065e57600080fd5b5061067960048036038101906106749190613362565b61119f565b005b34801561068757600080fd5b506106a2600480360381019061069d9190613443565b6111b5565b005b3480156106b057600080fd5b506106b9611217565b6040516106c69190613085565b60405180910390f35b3480156106db57600080fd5b506106f660048036038101906106f19190612f54565b61121d565b6040516107039190612efc565b60405180910390f35b34801561071857600080fd5b5061072161130e565b60405161072e9190612fc2565b60405180910390f35b34801561074357600080fd5b5061074c611334565b6040516107599190613085565b60405180910390f35b34801561076e57600080fd5b50610789600480360381019061078491906134c6565b611358565b6040516107969190612e51565b60405180910390f35b3480156107ab57600080fd5b506107c660048036038101906107c19190613049565b6113ec565b005b60006107d38261146f565b9050919050565b6060600080546107e990613535565b80601f016020809104026020016040519081016040528092919081815260200182805461081590613535565b80156108625780601f1061083757610100808354040283529160200191610862565b820191906000526020600020905b81548152906001019060200180831161084557829003601f168201915b5050505050905090565b6000610877826114e9565b6004600083815260200190815260200160002060009054906101000a900473ffffffffffffffffffffffffffffffffffffffff169050919050565b60006108bd82610d5e565b90508073ffffffffffffffffffffffffffffffffffffffff168373ffffffffffffffffffffffffffffffffffffffff160361092d576040517f08c379a0000000000000000000000000000000000000000000000000000000008152600401610924906135d8565b60405180910390fd5b8073ffffffffffffffffffffffffffffffffffffffff1661094c611534565b73ffffffffffffffffffffffffffffffffffffffff16148061097b575061097a81610975611534565b611358565b5b6109ba576040517f08c379a00000000000000000000000000000000000000000000000000000000081526004016109b19061366a565b60405180910390fd5b6109c4838361153c565b505050565b6109d16115f5565b80600f60006101000a81548173ffffffffffffffffffffffffffffffffffffffff021916908373ffffffffffffffffffffffffffffffffffffffff16021790555050565b6000600880549050905090565b610a2a6115f5565b610a3382611673565b610a72576040517f08c379a0000000000000000000000000000000000000000000000000000000008152600401610a69906136d6565b60405180910390fd5b817f929cc2f05ef887750595a55a18601853b3b1422b643bd8f77efaaaa67178dc5d60405160405180910390a2601060008381526020019081526020016000206000610abe9190612d40565b610ac882826116b4565b5050565b610add610ad7611534565b82611721565b610b1c576040517f08c379a0000000000000000000000000000000000000000000000000000000008152600401610b1390613768565b60405180910390fd5b610b278383836117b6565b505050565b60008060006103e8600c5485610b4291906137b7565b610b4c9190613828565b9050600f60009054906101000a900473ffffffffffffffffffffffffffffffffffffffff168192509250509250929050565b6000610b8983610fce565b8210610bca576040517f08c379a0000000000000000000000000000000000000000000000000000000008152600401610bc1906138cb565b60405180910390fd5b600660008473ffffffffffffffffffffffffffffffffffffffff1673ffffffffffffffffffffffffffffffffffffffff168152602001908152602001600020600083815260200190815260200160002054905092915050565b610c2b6115f5565b610c33611aaf565b6000479050600f60009054906101000a900473ffffffffffffffffffffffffffffffffffffffff1673ffffffffffffffffffffffffffffffffffffffff166108fc829081150290604051600060405180830381858888f19350505050158015610ca0573d6000803e3d6000fd5b5050565b610cac6115f5565b610cb4611af9565b565b610cd1838383604051806020016040528060008152506111b5565b505050565b6000610ce0610a15565b8210610d21576040517f08c379a0000000000000000000000000000000000000000000000000000000008152600401610d189061395d565b60405180910390fd5b60088281548110610d3557610d3461397d565b5b90600052602060002001549050919050565b6000600a60009054906101000a900460ff16905090565b600080610d6a83611b5c565b9050600073ffffffffffffffffffffffffffffffffffffffff168173ffffffffffffffffffffffffffffffffffffffff1603610ddb576040517f08c379a0000000000000000000000000000000000000000000000000000000008152600401610dd2906139f8565b60405180910390fd5b80915050919050565b610dec611aaf565b7f0000000000000000000000000000000000000000000000000000000000000000610e17600b611b99565b10610e57576040517f08c379a0000000000000000000000000000000000000000000000000000000008152600401610e4e90613a64565b60405180910390fd5b6003601160003373ffffffffffffffffffffffffffffffffffffffff1673ffffffffffffffffffffffffffffffffffffffff1681526020019081526020016000205410610ed9576040517f08c379a0000000000000000000000000000000000000000000000000000000008152600401610ed090613ad0565b60405180910390fd5b6000610ee5600b611b99565b90506000610ef282611ba7565b604051602001610f029190613b78565b6040516020818303038152906040529050610f1d600b611c75565b601160003373ffffffffffffffffffffffffffffffffffffffff1673ffffffffffffffffffffffffffffffffffffffff1681526020019081526020016000206000815480929190610f6d90613b9a565b9190505550813373ffffffffffffffffffffffffffffffffffffffff167f2d8eb9b9558d4b5ef1d238622692f6156d5822009340e26ab15fac05d64c12f060405160405180910390a3610fc03383611c8b565b610fca82826116b4565b5050565b60008073ffffffffffffffffffffffffffffffffffffffff168273ffffffffffffffffffffffffffffffffffffffff160361103e576040517f08c379a000000000000000000000000000000000000000000000000000000000815260040161103590613c54565b60405180910390fd5b600360008373ffffffffffffffffffffffffffffffffffffffff1673ffffffffffffffffffffffffffffffffffffffff168152602001908152602001600020549050919050565b61108d6115f5565b6110976000611ca9565b565b60116020528060005260406000206000915090505481565b600381565b6110be6115f5565b80600d90816110cd9190613e20565b5050565b6110d96115f5565b6110e1611d6f565b565b6000600a60019054906101000a900473ffffffffffffffffffffffffffffffffffffffff16905090565b60606001805461111c90613535565b80601f016020809104026020016040519081016040528092919081815260200182805461114890613535565b80156111955780601f1061116a57610100808354040283529160200191611195565b820191906000526020600020905b81548152906001019060200180831161117857829003601f168201915b5050505050905090565b6111b16111aa611534565b8383611dd2565b5050565b6111c66111c0611534565b83611721565b611205576040517f08c379a00000000000000000000000000000000000000000000000000000000081526004016111fc90613768565b60405180910390fd5b61121184848484611f3e565b50505050565b600c5481565b6060611228826114e9565b600060106000848152602001908152602001600020805461124890613535565b80601f016020809104026020016040519081016040528092919081815260200182805461127490613535565b80156112c15780601f10611296576101008083540402835291602001916112c1565b820191906000526020600020905b8154815290600101906020018083116112a457829003601f168201915b5050505050905060006112d2611f9a565b905060008151036112e7578192505050611309565b6000825111156112fb578192505050611309565b6113048461202c565b925050505b919050565b600f60009054906101000a900473ffffffffffffffffffffffffffffffffffffffff1681565b7f000000000000000000000000000000000000000000000000000000000000000081565b6000600560008473ffffffffffffffffffffffffffffffffffffffff1673ffffffffffffffffffffffffffffffffffffffff16815260200190815260200160002060008373ffffffffffffffffffffffffffffffffffffffff1673ffffffffffffffffffffffffffffffffffffffff16815260200190815260200160002060009054906101000a900460ff16905092915050565b6113f46115f5565b600073ffffffffffffffffffffffffffffffffffffffff168173ffffffffffffffffffffffffffffffffffffffff1603611463576040517f08c379a000000000000000000000000000000000000000000000000000000000815260040161145a90613f64565b60405180910390fd5b61146c81611ca9565b50565b60007f780e9d63000000000000000000000000000000000000000000000000000000007bffffffffffffffffffffffffffffffffffffffffffffffffffffffff1916827bffffffffffffffffffffffffffffffffffffffffffffffffffffffff191614806114e257506114e182612094565b5b9050919050565b6114f281611673565b611531576040517f08c379a0000000000000000000000000000000000000000000000000000000008152600401611528906139f8565b60405180910390fd5b50565b600033905090565b816004600083815260200190815260200160002060006101000a81548173ffffffffffffffffffffffffffffffffffffffff021916908373ffffffffffffffffffffffffffffffffffffffff160217905550808273ffffffffffffffffffffffffffffffffffffffff166115af83610d5e565b73ffffffffffffffffffffffffffffffffffffffff167f8c5be1e5ebec7d5bd14f71427d1e84f3dd0314c0f7b2291e5b200ac8c7c3b92560405160405180910390a45050565b6115fd611534565b73ffffffffffffffffffffffffffffffffffffffff1661161b6110e3565b73ffffffffffffffffffffffffffffffffffffffff1614611671576040517f08c379a000000000000000000000000000000000000000000000000000000000815260040161166890613fd0565b60405180910390fd5b565b60008073ffffffffffffffffffffffffffffffffffffffff1661169583611b5c565b73ffffffffffffffffffffffffffffffffffffffff1614159050919050565b6116bd82611673565b6116fc576040517f08c379a00000000000000000000000000000000000000000000000000000000081526004016116f390614062565b60405180910390fd5b8060106000848152602001908152602001600020908161171c9190613e20565b505050565b60008061172d83610d5e565b90508073ffffffffffffffffffffffffffffffffffffffff168473ffffffffffffffffffffffffffffffffffffffff16148061176f575061176e8185611358565b5b806117ad57508373ffffffffffffffffffffffffffffffffffffffff166117958461086c565b73ffffffffffffffffffffffffffffffffffffffff16145b91505092915050565b8273ffffffffffffffffffffffffffffffffffffffff166117d682610d5e565b73ffffffffffffffffffffffffffffffffffffffff161461182c576040517f08c379a0000000000000000000000000000000000000000000000000000000008152600401611823906140f4565b60405180910390fd5b600073ffffffffffffffffffffffffffffffffffffffff168273ffffffffffffffffffffffffffffffffffffffff160361189b576040517f08c379a000000000000000000000000000000000000000000000000000000000815260040161189290614186565b60405180910390fd5b6118a88383836001612176565b8273ffffffffffffffffffffffffffffffffffffffff166118c882610d5e565b73ffffffffffffffffffffffffffffffffffffffff161461191e576040517f08c379a0000000000000000000000000000000000000000000000000000000008152600401611915906140f4565b60405180910390fd5b6004600082815260200190815260200160002060006101000a81549073ffffffffffffffffffffffffffffffffffffffff02191690556001600360008573ffffffffffffffffffffffffffffffffffffffff1673ffffffffffffffffffffffffffffffffffffffff168152602001908152602001600020600082825403925050819055506001600360008473ffffffffffffffffffffffffffffffffffffffff1673ffffffffffffffffffffffffffffffffffffffff16815260200190815260200160002060008282540192505081905550816002600083815260200190815260200160002060006101000a81548173ffffffffffffffffffffffffffffffffffffffff021916908373ffffffffffffffffffffffffffffffffffffffff160217905550808273ffffffffffffffffffffffffffffffffffffffff168473ffffffffffffffffffffffffffffffffffffffff167fddf252ad1be2c89b69c2b068fc378daa952ba7f163c4a11628f55a4df523b3ef60405160405180910390a4611aaa8383836001612188565b505050565b611ab7610d47565b15611af7576040517f08c379a0000000000000000000000000000000000000000000000000000000008152600401611aee906141f2565b60405180910390fd5b565b611b0161218e565b6000600a60006101000a81548160ff0219169083151502179055507f5db9ee0a495bf2e6ff9c91a7834c1ba4fdd244a5e8aa4e537bd38aeae4b073aa611b45611534565b604051611b529190612fc2565b60405180910390a1565b60006002600083815260200190815260200160002060009054906101000a900473ffffffffffffffffffffffffffffffffffffffff169050919050565b600081600001549050919050565b606060006001611bb6846121d7565b01905060008167ffffffffffffffff811115611bd557611bd46130aa565b5b6040519080825280601f01601f191660200182016040528015611c075781602001600182028036833780820191505090505b509050600082602001820190505b600115611c6a578080600190039150507f3031323334353637383961626364656600000000000000000000000000000000600a86061a8153600a8581611c5e57611c5d6137f9565b5b04945060008503611c15575b819350505050919050565b6001816000016000828254019250508190555050565b611ca582826040518060200160405280600081525061232a565b5050565b6000600a60019054906101000a900473ffffffffffffffffffffffffffffffffffffffff16905081600a60016101000a81548173ffffffffffffffffffffffffffffffffffffffff021916908373ffffffffffffffffffffffffffffffffffffffff1602179055508173ffffffffffffffffffffffffffffffffffffffff168173ffffffffffffffffffffffffffffffffffffffff167f8be0079c531659141344cd1fd0a4f28419497f9722a3daafe3b4186f6b6457e060405160405180910390a35050565b611d77611aaf565b6001600a60006101000a81548160ff0219169083151502179055507f62e78cea01bee320cd4e420270b5ea74000d11b0c9f74754ebdbfc544b05a258611dbb611534565b604051611dc89190612fc2565b60405180910390a1565b8173ffffffffffffffffffffffffffffffffffffffff168373ffffffffffffffffffffffffffffffffffffffff1603611e40576040517f08c379a0000000000000000000000000000000000000000000000000000000008152600401611e379061425e565b60405180910390fd5b80600560008573ffffffffffffffffffffffffffffffffffffffff1673ffffffffffffffffffffffffffffffffffffffff16815260200190815260200160002060008473ffffffffffffffffffffffffffffffffffffffff1673ffffffffffffffffffffffffffffffffffffffff16815260200190815260200160002060006101000a81548160ff0219169083151502179055508173ffffffffffffffffffffffffffffffffffffffff168373ffffffffffffffffffffffffffffffffffffffff167f17307eab39ab6107e8899845ad3d59bd9653f200f220920489ca2b5937696c3183604051611f319190612e51565b60405180910390a3505050565b611f498484846117b6565b611f5584848484612385565b611f94576040517f08c379a0000000000000000000000000000000000000000000000000000000008152600401611f8b906142f0565b60405180910390fd5b50505050565b6060600e8054611fa990613535565b80601f0160208091040260200160405190810160405280929190818152602001828054611fd590613535565b80156120225780601f10611ff757610100808354040283529160200191612022565b820191906000526020600020905b81548152906001019060200180831161200557829003601f168201915b5050505050905090565b6060612037826114e9565b6000612041611f9a565b90506000815111612061576040518060200160405280600081525061208c565b8061206b84611ba7565b60405160200161207c929190614310565b6040516020818303038152906040525b915050919050565b60007f80ac58cd000000000000000000000000000000000000000000000000000000007bffffffffffffffffffffffffffffffffffffffffffffffffffffffff1916827bffffffffffffffffffffffffffffffffffffffffffffffffffffffff1916148061215f57507f5b5e139f000000000000000000000000000000000000000000000000000000007bffffffffffffffffffffffffffffffffffffffffffffffffffffffff1916827bffffffffffffffffffffffffffffffffffffffffffffffffffffffff1916145b8061216f575061216e8261250c565b5b9050919050565b61218284848484612576565b50505050565b50505050565b612196610d47565b6121d5576040517f08c379a00000000000000000000000000000000000000000000000000000000081526004016121cc90614380565b60405180910390fd5b565b600080600090507a184f03e93ff9f4daa797ed6e38ed64bf6a1f0100000000000000008310612235577a184f03e93ff9f4daa797ed6e38ed64bf6a1f010000000000000000838161222b5761222a6137f9565b5b0492506040810190505b6d04ee2d6d415b85acef81000000008310612272576d04ee2d6d415b85acef81000000008381612268576122676137f9565b5b0492506020810190505b662386f26fc1000083106122a157662386f26fc100008381612297576122966137f9565b5b0492506010810190505b6305f5e10083106122ca576305f5e10083816122c0576122bf6137f9565b5b0492506008810190505b61271083106122ef5761271083816122e5576122e46137f9565b5b0492506004810190505b606483106123125760648381612308576123076137f9565b5b0492506002810190505b600a8310612321576001810190505b80915050919050565b61233483836126d4565b6123416000848484612385565b612380576040517f08c379a0000000000000000000000000000000000000000000000000000000008152600401612377906142f0565b60405180910390fd5b505050565b60006123a68473ffffffffffffffffffffffffffffffffffffffff166128f1565b156124ff578373ffffffffffffffffffffffffffffffffffffffff1663150b7a026123cf611534565b8786866040518563ffffffff1660e01b81526004016123f194939291906143f5565b6020604051808303816000875af192505050801561242d57506040513d601f19601f8201168201806040525081019061242a9190614456565b60015b6124af573d806000811461245d576040519150601f19603f3d011682016040523d82523d6000602084013e612462565b606091505b5060008151036124a7576040517f08c379a000000000000000000000000000000000000000000000000000000000815260040161249e906142f0565b60405180910390fd5b805181602001fd5b63150b7a0260e01b7bffffffffffffffffffffffffffffffffffffffffffffffffffffffff1916817bffffffffffffffffffffffffffffffffffffffffffffffffffffffff191614915050612504565b600190505b949350505050565b60007f01ffc9a7000000000000000000000000000000000000000000000000000000007bffffffffffffffffffffffffffffffffffffffffffffffffffffffff1916827bffffffffffffffffffffffffffffffffffffffffffffffffffffffff1916149050919050565b61258284848484612914565b60018111156125c6576040517f08c379a00000000000000000000000000000000000000000000000000000000081526004016125bd906144f5565b60405180910390fd5b6000829050600073ffffffffffffffffffffffffffffffffffffffff168573ffffffffffffffffffffffffffffffffffffffff160361260d5761260881612a3a565b61264c565b8373ffffffffffffffffffffffffffffffffffffffff168573ffffffffffffffffffffffffffffffffffffffff161461264b5761264a8582612a83565b5b5b600073ffffffffffffffffffffffffffffffffffffffff168473ffffffffffffffffffffffffffffffffffffffff160361268e5761268981612bf0565b6126cd565b8473ffffffffffffffffffffffffffffffffffffffff168473ffffffffffffffffffffffffffffffffffffffff16146126cc576126cb8482612cc1565b5b5b5050505050565b600073ffffffffffffffffffffffffffffffffffffffff168273ffffffffffffffffffffffffffffffffffffffff1603612743576040517f08c379a000000000000000000000000000000000000000000000000000000000815260040161273a90614561565b60405180910390fd5b61274c81611673565b1561278c576040517f08c379a0000000000000000000000000000000000000000000000000000000008152600401612783906145cd565b60405180910390fd5b61279a600083836001612176565b6127a381611673565b156127e3576040517f08c379a00000000000000000000000000000000000000000000000000000000081526004016127da906145cd565b60405180910390fd5b6001600360008473ffffffffffffffffffffffffffffffffffffffff1673ffffffffffffffffffffffffffffffffffffffff16815260200190815260200160002060008282540192505081905550816002600083815260200190815260200160002060006101000a81548173ffffffffffffffffffffffffffffffffffffffff021916908373ffffffffffffffffffffffffffffffffffffffff160217905550808273ffffffffffffffffffffffffffffffffffffffff16600073ffffffffffffffffffffffffffffffffffffffff167fddf252ad1be2c89b69c2b068fc378daa952ba7f163c4a11628f55a4df523b3ef60405160405180910390a46128ed600083836001612188565b5050565b6000808273ffffffffffffffffffffffffffffffffffffffff163b119050919050565b6001811115612a3457600073ffffffffffffffffffffffffffffffffffffffff168473ffffffffffffffffffffffffffffffffffffffff16146129a85780600360008673ffffffffffffffffffffffffffffffffffffffff1673ffffffffffffffffffffffffffffffffffffffff16815260200190815260200160002060008282546129a091906145ed565b925050819055505b600073ffffffffffffffffffffffffffffffffffffffff168373ffffffffffffffffffffffffffffffffffffffff1614612a335780600360008573ffffffffffffffffffffffffffffffffffffffff1673ffffffffffffffffffffffffffffffffffffffff1681526020019081526020016000206000828254612a2b9190614621565b925050819055505b5b50505050565b6008805490506009600083815260200190815260200160002081905550600881908060018154018082558091505060019003906000526020600020016000909190919091505550565b60006001612a9084610fce565b612a9a91906145ed565b9050600060076000848152602001908152602001600020549050818114612b7f576000600660008673ffffffffffffffffffffffffffffffffffffffff1673ffffffffffffffffffffffffffffffffffffffff168152602001908152602001600020600084815260200190815260200160002054905080600660008773ffffffffffffffffffffffffffffffffffffffff1673ffffffffffffffffffffffffffffffffffffffff168152602001908152602001600020600084815260200190815260200160002081905550816007600083815260200190815260200160002081905550505b6007600084815260200190815260200160002060009055600660008573ffffffffffffffffffffffffffffffffffffffff1673ffffffffffffffffffffffffffffffffffffffff16815260200190815260200160002060008381526020019081526020016000206000905550505050565b60006001600880549050612c0491906145ed565b9050600060096000848152602001908152602001600020549050600060088381548110612c3457612c3361397d565b5b906000526020600020015490508060088381548110612c5657612c5561397d565b5b906000526020600020018190555081600960008381526020019081526020016000208190555060096000858152602001908152602001600020600090556008805480612ca557612ca4614655565b5b6001900381819060005260206000200160009055905550505050565b6000612ccc83610fce565b905081600660008573ffffffffffffffffffffffffffffffffffffffff1673ffffffffffffffffffffffffffffffffffffffff168152602001908152602001600020600083815260200190815260200160002081905550806007600084815260200190815260200160002081905550505050565b508054612d4c90613535565b6000825580601f10612d5e5750612d7d565b601f016020900490600052602060002090810190612d7c9190612d80565b5b50565b5b80821115612d99576000816000905550600101612d81565b5090565b6000604051905090565b600080fd5b600080fd5b60007fffffffff0000000000000000000000000000000000000000000000000000000082169050919050565b612de681612db1565b8114612df157600080fd5b50565b600081359050612e0381612ddd565b92915050565b600060208284031215612e1f57612e1e612da7565b5b6000612e2d84828501612df4565b91505092915050565b60008115159050919050565b612e4b81612e36565b82525050565b6000602082019050612e666000830184612e42565b92915050565b600081519050919050565b600082825260208201905092915050565b60005b83811015612ea6578082015181840152602081019050612e8b565b60008484015250505050565b6000601f19601f8301169050919050565b6000612ece82612e6c565b612ed88185612e77565b9350612ee8818560208601612e88565b612ef181612eb2565b840191505092915050565b60006020820190508181036000830152612f168184612ec3565b905092915050565b6000819050919050565b612f3181612f1e565b8114612f3c57600080fd5b50565b600081359050612f4e81612f28565b92915050565b600060208284031215612f6a57612f69612da7565b5b6000612f7884828501612f3f565b91505092915050565b600073ffffffffffffffffffffffffffffffffffffffff82169050919050565b6000612fac82612f81565b9050919050565b612fbc81612fa1565b82525050565b6000602082019050612fd76000830184612fb3565b92915050565b612fe681612fa1565b8114612ff157600080fd5b50565b60008135905061300381612fdd565b92915050565b600080604083850312156130205761301f612da7565b5b600061302e85828601612ff4565b925050602061303f85828601612f3f565b9150509250929050565b60006020828403121561305f5761305e612da7565b5b600061306d84828501612ff4565b91505092915050565b61307f81612f1e565b82525050565b600060208201905061309a6000830184613076565b92915050565b600080fd5b600080fd5b7f4e487b7100000000000000000000000000000000000000000000000000000000600052604160045260246000fd5b6130e282612eb2565b810181811067ffffffffffffffff82111715613101576131006130aa565b5b80604052505050565b6000613114612d9d565b905061312082826130d9565b919050565b600067ffffffffffffffff8211156131405761313f6130aa565b5b61314982612eb2565b9050602081019050919050565b82818337600083830152505050565b600061317861317384613125565b61310a565b905082815260208101848484011115613194576131936130a5565b5b61319f848285613156565b509392505050565b600082601f8301126131bc576131bb6130a0565b5b81356131cc848260208601613165565b91505092915050565b600080604083850312156131ec576131eb612da7565b5b60006131fa85828601612f3f565b925050602083013567ffffffffffffffff81111561321b5761321a612dac565b5b613227858286016131a7565b9150509250929050565b60008060006060848603121561324a57613249612da7565b5b600061325886828701612ff4565b935050602061326986828701612ff4565b925050604061327a86828701612f3f565b9150509250925092565b6000806040838503121561329b5761329a612da7565b5b60006132a985828601612f3f565b92505060206132ba85828601612f3f565b9150509250929050565b60006040820190506132d96000830185612fb3565b6132e66020830184613076565b9392505050565b60006020828403121561330357613302612da7565b5b600082013567ffffffffffffffff81111561332157613320612dac565b5b61332d848285016131a7565b91505092915050565b61333f81612e36565b811461334a57600080fd5b50565b60008135905061335c81613336565b92915050565b6000806040838503121561337957613378612da7565b5b600061338785828601612ff4565b92505060206133988582860161334d565b9150509250929050565b600067ffffffffffffffff8211156133bd576133bc6130aa565b5b6133c682612eb2565b9050602081019050919050565b60006133e66133e1846133a2565b61310a565b905082815260208101848484011115613402576134016130a5565b5b61340d848285613156565b509392505050565b600082601f83011261342a576134296130a0565b5b813561343a8482602086016133d3565b91505092915050565b6000806000806080858703121561345d5761345c612da7565b5b600061346b87828801612ff4565b945050602061347c87828801612ff4565b935050604061348d87828801612f3f565b925050606085013567ffffffffffffffff8111156134ae576134ad612dac565b5b6134ba87828801613415565b91505092959194509250565b600080604083850312156134dd576134dc612da7565b5b60006134eb85828601612ff4565b92505060206134fc85828601612ff4565b9150509250929050565b7f4e487b7100000000000000000000000000000000000000000000000000000000600052602260045260246000fd5b6000600282049050600182168061354d57607f821691505b6020821081036135605761355f613506565b5b50919050565b7f4552433732313a20617070726f76616c20746f2063757272656e74206f776e6560008201527f7200000000000000000000000000000000000000000000000000000000000000602082015250565b60006135c2602183612e77565b91506135cd82613566565b604082019050919050565b600060208201905081810360008301526135f1816135b5565b9050919050565b7f4552433732313a20617070726f76652063616c6c6572206973206e6f7420746f60008201527f6b656e206f776e6572206f7220617070726f76656420666f7220616c6c000000602082015250565b6000613654603d83612e77565b915061365f826135f8565b604082019050919050565b6000602082019050818103600083015261368381613647565b9050919050565b7f546f6b656e20646f6573206e6f74206578697374000000000000000000000000600082015250565b60006136c0601483612e77565b91506136cb8261368a565b602082019050919050565b600060208201905081810360008301526136ef816136b3565b9050919050565b7f4552433732313a2063616c6c6572206973206e6f7420746f6b656e206f776e6560008201527f72206f7220617070726f76656400000000000000000000000000000000000000602082015250565b6000613752602d83612e77565b915061375d826136f6565b604082019050919050565b6000602082019050818103600083015261378181613745565b9050919050565b7f4e487b7100000000000000000000000000000000000000000000000000000000600052601160045260246000fd5b60006137c282612f1e565b91506137cd83612f1e565b92508282026137db81612f1e565b915082820484148315176137f2576137f1613788565b5b5092915050565b7f4e487b7100000000000000000000000000000000000000000000000000000000600052601260045260246000fd5b600061383382612f1e565b915061383e83612f1e565b92508261384e5761384d6137f9565b5b828204905092915050565b7f455243373231456e756d657261626c653a206f776e657220696e646578206f7560008201527f74206f6620626f756e6473000000000000000000000000000000000000000000602082015250565b60006138b5602b83612e77565b91506138c082613859565b604082019050919050565b600060208201905081810360008301526138e4816138a8565b9050919050565b7f455243373231456e756d657261626c653a20676c6f62616c20696e646578206f60008201527f7574206f6620626f756e64730000000000000000000000000000000000000000602082015250565b6000613947602c83612e77565b9150613952826138eb565b604082019050919050565b600060208201905081810360008301526139768161393a565b9050919050565b7f4e487b7100000000000000000000000000000000000000000000000000000000600052603260045260246000fd5b7f4552433732313a20696e76616c696420746f6b656e2049440000000000000000600082015250565b60006139e2601883612e77565b91506139ed826139ac565b602082019050919050565b60006020820190508181036000830152613a11816139d5565b9050919050565b7f4d617820737570706c7920726561636865640000000000000000000000000000600082015250565b6000613a4e601283612e77565b9150613a5982613a18565b602082019050919050565b60006020820190508181036000830152613a7d81613a41565b9050919050565b7f4d696e74206c696d697420726561636865640000000000000000000000000000600082015250565b6000613aba601283612e77565b9150613ac582613a84565b602082019050919050565b60006020820190508181036000830152613ae981613aad565b9050919050565b600081905092915050565b6000613b0682612e6c565b613b108185613af0565b9350613b20818560208601612e88565b80840191505092915050565b7f2e6a736f6e000000000000000000000000000000000000000000000000000000600082015250565b6000613b62600583613af0565b9150613b6d82613b2c565b600582019050919050565b6000613b848284613afb565b9150613b8f82613b55565b915081905092915050565b6000613ba582612f1e565b91507fffffffffffffffffffffffffffffffffffffffffffffffffffffffffffffffff8203613bd757613bd6613788565b5b600182019050919050565b7f4552433732313a2061646472657373207a65726f206973206e6f74206120766160008201527f6c6964206f776e65720000000000000000000000000000000000000000000000602082015250565b6000613c3e602983612e77565b9150613c4982613be2565b604082019050919050565b60006020820190508181036000830152613c6d81613c31565b9050919050565b60008190508160005260206000209050919050565b60006020601f8301049050919050565b600082821b905092915050565b600060088302613cd67fffffffffffffffffffffffffffffffffffffffffffffffffffffffffffffffff82613c99565b613ce08683613c99565b95508019841693508086168417925050509392505050565b6000819050919050565b6000613d1d613d18613d1384612f1e565b613cf8565b612f1e565b9050919050565b6000819050919050565b613d3783613d02565b613d4b613d4382613d24565b848454613ca6565b825550505050565b600090565b613d60613d53565b613d6b818484613d2e565b505050565b5b81811015613d8f57613d84600082613d58565b600181019050613d71565b5050565b601f821115613dd457613da581613c74565b613dae84613c89565b81016020851015613dbd578190505b613dd1613dc985613c89565b830182613d70565b50505b505050565b600082821c905092915050565b6000613df760001984600802613dd9565b1980831691505092915050565b6000613e108383613de6565b9150826002028217905092915050565b613e2982612e6c565b67ffffffffffffffff811115613e4257613e416130aa565b5b613e4c8254613535565b613e57828285613d93565b600060209050601f831160018114613e8a5760008415613e78578287015190505b613e828582613e04565b865550613eea565b601f198416613e9886613c74565b60005b82811015613ec057848901518255600182019150602085019450602081019050613e9b565b86831015613edd5784890151613ed9601f891682613de6565b8355505b6001600288020188555050505b505050505050565b7f4f776e61626c653a206e6577206f776e657220697320746865207a65726f206160008201527f6464726573730000000000000000000000000000000000000000000000000000602082015250565b6000613f4e602683612e77565b9150613f5982613ef2565b604082019050919050565b60006020820190508181036000830152613f7d81613f41565b9050919050565b7f4f776e61626c653a2063616c6c6572206973206e6f7420746865206f776e6572600082015250565b6000613fba602083612e77565b9150613fc582613f84565b602082019050919050565b60006020820190508181036000830152613fe981613fad565b9050919050565b7f45524337323155524953746f726167653a2055524920736574206f66206e6f6e60008201527f6578697374656e7420746f6b656e000000000000000000000000000000000000602082015250565b600061404c602e83612e77565b915061405782613ff0565b604082019050919050565b6000602082019050818103600083015261407b8161403f565b9050919050565b7f4552433732313a207472616e736665722066726f6d20696e636f72726563742060008201527f6f776e6572000000000000000000000000000000000000000000000000000000602082015250565b60006140de602583612e77565b91506140e982614082565b604082019050919050565b6000602082019050818103600083015261410d816140d1565b9050919050565b7f4552433732313a207472616e7366657220746f20746865207a65726f2061646460008201527f7265737300000000000000000000000000000000000000000000000000000000602082015250565b6000614170602483612e77565b915061417b82614114565b604082019050919050565b6000602082019050818103600083015261419f81614163565b9050919050565b7f5061757361626c653a2070617573656400000000000000000000000000000000600082015250565b60006141dc601083612e77565b91506141e7826141a6565b602082019050919050565b6000602082019050818103600083015261420b816141cf565b9050919050565b7f4552433732313a20617070726f766520746f2063616c6c657200000000000000600082015250565b6000614248601983612e77565b915061425382614212565b602082019050919050565b600060208201905081810360008301526142778161423b565b9050919050565b7f4552433732313a207472616e7366657220746f206e6f6e20455243373231526560008201527f63656976657220696d706c656d656e7465720000000000000000000000000000602082015250565b60006142da603283612e77565b91506142e58261427e565b604082019050919050565b60006020820190508181036000830152614309816142cd565b9050919050565b600061431c8285613afb565b91506143288284613afb565b91508190509392505050565b7f5061757361626c653a206e6f7420706175736564000000000000000000000000600082015250565b600061436a601483612e77565b915061437582614334565b602082019050919050565b600060208201905081810360008301526143998161435d565b9050919050565b600081519050919050565b600082825260208201905092915050565b60006143c7826143a0565b6143d181856143ab565b93506143e1818560208601612e88565b6143ea81612eb2565b840191505092915050565b600060808201905061440a6000830187612fb3565b6144176020830186612fb3565b6144246040830185613076565b818103606083015261443681846143bc565b905095945050505050565b60008151905061445081612ddd565b92915050565b60006020828403121561446c5761446b612da7565b5b600061447a84828501614441565b91505092915050565b7f455243373231456e756d657261626c653a20636f6e736563757469766520747260008201527f616e7366657273206e6f7420737570706f727465640000000000000000000000602082015250565b60006144df603583612e77565b91506144ea82614483565b604082019050919050565b6000602082019050818103600083015261450e816144d2565b9050919050565b7f4552433732313a206d696e7420746f20746865207a65726f2061646472657373600082015250565b600061454b602083612e77565b915061455682614515565b602082019050919050565b6000602082019050818103600083015261457a8161453e565b9050919050565b7f4552433732313a20746f6b656e20616c7265616479206d696e74656400000000600082015250565b60006145b7601c83612e77565b91506145c282614581565b602082019050919050565b600060208201905081810360008301526145e6816145aa565b9050919050565b60006145f882612f1e565b915061460383612f1e565b925082820390508181111561461b5761461a613788565b5b92915050565b600061462c82612f1e565b915061463783612f1e565b925082820190508082111561464f5761464e613788565b5b92915050565b7f4e487b7100000000000000000000000000000000000000000000000000000000600052603160045260246000fdfea26469706673582212206f957be56764e7268039c1679aafb65c7cb07c006b96ddde61d9b5fd47c7f14a64736f6c63430008110033",
  "immutableReferences": {
    "3275": [
      {
        "length": 32,
        "start": 3566
      },
      {
        "length": 32,
        "start": 4918
      }
    ]
  },
  "source": "// SPDX-License-Identifier: MIT\npragma solidity ^0.8.17;\n\nimport \"@openzeppelin/contracts/token/ERC721/ERC721.sol\";\nimport \"@openzeppelin/contracts/token/ERC721/extensions/ERC721Enumerable.sol\";\nimport \"@openzeppelin/contracts/interfaces/IERC2981.sol\";\nimport \"@openzeppelin/contracts/security/Pausable.sol\";\nimport \"@openzeppelin/contracts/access/Ownable.sol\";\nimport \"@openzeppelin/contracts/utils/Counters.sol\";\nimport \"@openzeppelin/contracts/utils/Strings.sol\";\n\n/// @custom:security-contact contact@altify.io\ncontract PixelChads is ERC721, ERC721Enumerable, IERC2981, Pausable, Ownable {\n    using Counters for Counters.Counter;\n    using Strings for uint256;\n\n    Counters.Counter private _tokenIdCounter;\n\n    event tokenMinted(address indexed to, uint256 indexed tokenId);\n    event tokenUpdated(uint256 indexed tokenId);\n\n    uint256 public immutable maxSupply = 500;\n    uint256 public collectionRoyaltyAmount = 100; // 10%\n    uint256 public constant maxMint = 3;\n    string private contractURI;\n    string private baseURI;\n    \n    address public paymentReceiver;\n    mapping(uint256 => string) private _tokenURIs;\n    mapping(address => uint256) public mintedTokens;\n\n\n    constructor(string memory _contractURI, string memory _startingBaseURI) ERC721(\"PixelChads\", \"CHAD\") {\n        //Contract URI links to JSON file containing information about the contract (royalties etc.)\n        contractURI = _contractURI;\n        paymentReceiver = msg.sender;\n        baseURI = _startingBaseURI;\n    }\n\n    //Fallback function incase someone sends tokens to the contract\n    receive() external payable {}\n\n    ///Mint Function\n    function safeMint() public whenNotPaused {\n        require(_tokenIdCounter.current() < maxSupply, \"Max supply reached\");\n        require(mintedTokens[msg.sender] < maxMint, \"Mint limit reached\");\n        uint256 tokenId = _tokenIdCounter.current();\n        string memory uri = string(abi.encodePacked(tokenId.toString(), \".json\"));\n        _tokenIdCounter.increment();\n        mintedTokens[msg.sender] ++;\n        emit tokenMinted(msg.sender, tokenId);\n        _safeMint(msg.sender, tokenId);\n        _setTokenURI(tokenId, uri);\n    }\n\n    //Updates the token URI for an individual Token ID\n    function updateTokenURI(uint256 tokenId, string memory uri) public onlyOwner {\n        require(_exists(tokenId), \"Token does not exist\");\n        emit tokenUpdated(tokenId);\n\n        delete _tokenURIs[tokenId];\n        \n        _setTokenURI(tokenId, uri);\n    }\n\n    ///Changes payment receiver for royalties & withdrawals\n    function updatePaymentReceiver(address _paymentReceiver) public onlyOwner {\n        paymentReceiver =  _paymentReceiver;\n    }\n\n    ///Sets the contract URI denoting key info like royalties\n    function updateContractURI(string memory _contractURI) public onlyOwner {\n        contractURI = _contractURI;\n    }\n\n    //Withdraws funds accidentally sent to the contract\n    function withdraw() public onlyOwner whenNotPaused {\n        uint256 balance = address(this).balance;\n        payable(paymentReceiver).transfer(balance);\n    }\n\n    ///Pauses minting and withdrawal\n    function pause() public onlyOwner {\n        _pause();\n    }\n\n    ///Unpauses minting and withdrawal\n    function unpause() public onlyOwner {\n        _unpause();\n    }\n\n    //Returns the current baseURI\n    function _baseURI() internal view override returns (string memory) {\n        return baseURI;\n    }\n\n    // The following functions are overrides required by Solidity.\n\n    function _beforeTokenTransfer(address from, address to, uint256 tokenId, uint256 batchSize)\n        internal\n        override(ERC721, ERC721Enumerable)\n    {\n        super._beforeTokenTransfer(from, to, tokenId, batchSize);\n    }\n\n    function _burn(uint256 tokenId) internal override(ERC721) {\n        super._burn(tokenId);\n    }\n\n    function supportsInterface(bytes4 interfaceId)\n        public\n        view\n        override(ERC721, ERC721Enumerable, IERC165)\n        returns (bool)\n    {\n        return super.supportsInterface(interfaceId);\n    }\n\n\n    ///ERC721 URI Storage Function Override to allow for dynamic tokenURI\n    function tokenURI(uint256 tokenId) public view virtual override returns (string memory) {\n        _requireMinted(tokenId);\n\n        string memory _tokenURI = _tokenURIs[tokenId];\n        string memory base = _baseURI();\n\n        // If there is no base URI, return the token URI.\n        if (bytes(base).length == 0) {\n            return _tokenURI;\n        }\n        // If both are set, concatenate the baseURI and tokenURI (via abi.encodePacked).\n        if (bytes(_tokenURI).length > 0) {\n            return string(_tokenURI);\n        }\n\n        return super.tokenURI(tokenId);\n    }\n\n    ///Updates individual tokenURI\n    function _setTokenURI(uint256 tokenId, string memory _tokenURI) internal {\n        require(_exists(tokenId), \"ERC721URIStorage: URI set of nonexistent token\");\n        _tokenURIs[tokenId] = _tokenURI;\n    }\n\n    /// IERC2981 Royalty Enforcement\n    function royaltyInfo(uint256 , uint256 salePrice)\n    external\n    view\n    returns (address receiver, uint256 royaltyAmount)\n    {\n        // calculate the amount of royalties\n        uint256 _royaltyAmount = (salePrice * collectionRoyaltyAmount) / 1000; // 10%\n        // return the amount of royalties and the recipient collection address\n        return (paymentReceiver, _royaltyAmount);\n    }\n\n\n}",
  "sourcePath": "/mnt/c/Users/danie/OneDrive/Desktop/Programming/nft/pixelchads/contracts/pixelchads.sol",
  "compiler": {
    "name": "solc",
    "version": "0.8.17+commit.8df45f5f.Emscripten.clang"
  },
  "schemaVersion": "3.4.11",
  "updatedAt": "2023-02-16T11:29:41.297Z",
  "devdoc": {
    "custom:security-contact": "contact@altify.io",
    "kind": "dev",
    "methods": {
      "approve(address,uint256)": {
        "details": "See {IERC721-approve}."
      },
      "balanceOf(address)": {
        "details": "See {IERC721-balanceOf}."
      },
      "getApproved(uint256)": {
        "details": "See {IERC721-getApproved}."
      },
      "isApprovedForAll(address,address)": {
        "details": "See {IERC721-isApprovedForAll}."
      },
      "name()": {
        "details": "See {IERC721Metadata-name}."
      },
      "owner()": {
        "details": "Returns the address of the current owner."
      },
      "ownerOf(uint256)": {
        "details": "See {IERC721-ownerOf}."
      },
      "paused()": {
        "details": "Returns true if the contract is paused, and false otherwise."
      },
      "renounceOwnership()": {
        "details": "Leaves the contract without owner. It will not be possible to call `onlyOwner` functions anymore. Can only be called by the current owner. NOTE: Renouncing ownership will leave the contract without an owner, thereby removing any functionality that is only available to the owner."
      },
      "safeTransferFrom(address,address,uint256)": {
        "details": "See {IERC721-safeTransferFrom}."
      },
      "safeTransferFrom(address,address,uint256,bytes)": {
        "details": "See {IERC721-safeTransferFrom}."
      },
      "setApprovalForAll(address,bool)": {
        "details": "See {IERC721-setApprovalForAll}."
      },
      "symbol()": {
        "details": "See {IERC721Metadata-symbol}."
      },
      "tokenByIndex(uint256)": {
        "details": "See {IERC721Enumerable-tokenByIndex}."
      },
      "tokenOfOwnerByIndex(address,uint256)": {
        "details": "See {IERC721Enumerable-tokenOfOwnerByIndex}."
      },
      "totalSupply()": {
        "details": "See {IERC721Enumerable-totalSupply}."
      },
      "transferFrom(address,address,uint256)": {
        "details": "See {IERC721-transferFrom}."
      },
      "transferOwnership(address)": {
        "details": "Transfers ownership of the contract to a new account (`newOwner`). Can only be called by the current owner."
      }
    },
    "version": 1
  },
  "userdoc": {
    "kind": "user",
    "methods": {
      "pause()": {
        "notice": "Pauses minting and withdrawal"
      },
      "royaltyInfo(uint256,uint256)": {
        "notice": "IERC2981 Royalty Enforcement"
      },
      "safeMint()": {
        "notice": "Mint Function"
      },
      "tokenURI(uint256)": {
        "notice": "ERC721 URI Storage Function Override to allow for dynamic tokenURI"
      },
      "unpause()": {
        "notice": "Unpauses minting and withdrawal"
      },
      "updateContractURI(string)": {
        "notice": "Sets the contract URI denoting key info like royalties"
      },
      "updatePaymentReceiver(address)": {
        "notice": "Changes payment receiver for royalties & withdrawals"
      }
    },
    "version": 1
  }
}