{
  "contractName": "PixelChads",
  "abi": [
    {
      "inputs": [
        {
          "internalType": "string",
          "name": "_contractURI",
          "type": "string"
        },
        {
          "internalType": "string",
          "name": "_startingBaseURI",
          "type": "string"
        }
      ],
      "stateMutability": "nonpayable",
      "type": "constructor"
    },
    {
      "anonymous": false,
      "inputs": [
        {
          "indexed": true,
          "internalType": "address",
          "name": "owner",
          "type": "address"
        },
        {
          "indexed": true,
          "internalType": "address",
          "name": "approved",
          "type": "address"
        },
        {
          "indexed": true,
          "internalType": "uint256",
          "name": "tokenId",
          "type": "uint256"
        }
      ],
      "name": "Approval",
      "type": "event"
    },
    {
      "anonymous": false,
      "inputs": [
        {
          "indexed": true,
          "internalType": "address",
          "name": "owner",
          "type": "address"
        },
        {
          "indexed": true,
          "internalType": "address",
          "name": "operator",
          "type": "address"
        },
        {
          "indexed": false,
          "internalType": "bool",
          "name": "approved",
          "type": "bool"
        }
      ],
      "name": "ApprovalForAll",
      "type": "event"
    },
    {
      "anonymous": false,
      "inputs": [
        {
          "indexed": true,
          "internalType": "address",
          "name": "previousOwner",
          "type": "address"
        },
        {
          "indexed": true,
          "internalType": "address",
          "name": "newOwner",
          "type": "address"
        }
      ],
      "name": "OwnershipTransferred",
      "type": "event"
    },
    {
      "anonymous": false,
      "inputs": [
        {
          "indexed": true,
          "internalType": "address",
          "name": "from",
          "type": "address"
        },
        {
          "indexed": true,
          "internalType": "address",
          "name": "to",
          "type": "address"
        },
        {
          "indexed": true,
          "internalType": "uint256",
          "name": "tokenId",
          "type": "uint256"
        }
      ],
      "name": "Transfer",
      "type": "event"
    },
    {
      "anonymous": false,
      "inputs": [
        {
          "indexed": true,
          "internalType": "address",
          "name": "to",
          "type": "address"
        },
        {
          "indexed": true,
          "internalType": "uint256",
          "name": "tokenId",
          "type": "uint256"
        }
      ],
      "name": "tokenMinted",
      "type": "event"
    },
    {
      "anonymous": false,
      "inputs": [
        {
          "indexed": true,
          "internalType": "uint256",
          "name": "tokenId",
          "type": "uint256"
        }
      ],
      "name": "tokenUpdated",
      "type": "event"
    },
    {
      "inputs": [
        {
          "internalType": "address",
          "name": "to",
          "type": "address"
        },
        {
          "internalType": "uint256",
          "name": "tokenId",
          "type": "uint256"
        }
      ],
      "name": "approve",
      "outputs": [],
      "stateMutability": "nonpayable",
      "type": "function"
    },
    {
      "inputs": [
        {
          "internalType": "address",
          "name": "owner",
          "type": "address"
        }
      ],
      "name": "balanceOf",
      "outputs": [
        {
          "internalType": "uint256",
          "name": "",
          "type": "uint256"
        }
      ],
      "stateMutability": "view",
      "type": "function"
    },
    {
      "inputs": [],
      "name": "collectionRoyaltyAmount",
      "outputs": [
        {
          "internalType": "uint256",
          "name": "",
          "type": "uint256"
        }
      ],
      "stateMutability": "view",
      "type": "function"
    },
    {
      "inputs": [],
      "name": "contractURI",
      "outputs": [
        {
          "internalType": "string",
          "name": "",
          "type": "string"
        }
      ],
      "stateMutability": "view",
      "type": "function"
    },
    {
      "inputs": [
        {
          "internalType": "uint256",
          "name": "tokenId",
          "type": "uint256"
        }
      ],
      "name": "getApproved",
      "outputs": [
        {
          "internalType": "address",
          "name": "",
          "type": "address"
        }
      ],
      "stateMutability": "view",
      "type": "function"
    },
    {
      "inputs": [
        {
          "internalType": "address",
          "name": "owner",
          "type": "address"
        },
        {
          "internalType": "address",
          "name": "operator",
          "type": "address"
        }
      ],
      "name": "isApprovedForAll",
      "outputs": [
        {
          "internalType": "bool",
          "name": "",
          "type": "bool"
        }
      ],
      "stateMutability": "view",
      "type": "function"
    },
    {
      "inputs": [],
      "name": "maxSupply",
      "outputs": [
        {
          "internalType": "uint256",
          "name": "",
          "type": "uint256"
        }
      ],
      "stateMutability": "view",
      "type": "function"
    },
    {
      "inputs": [],
      "name": "name",
      "outputs": [
        {
          "internalType": "string",
          "name": "",
          "type": "string"
        }
      ],
      "stateMutability": "view",
      "type": "function"
    },
    {
      "inputs": [],
      "name": "owner",
      "outputs": [
        {
          "internalType": "address",
          "name": "",
          "type": "address"
        }
      ],
      "stateMutability": "view",
      "type": "function"
    },
    {
      "inputs": [
        {
          "internalType": "uint256",
          "name": "tokenId",
          "type": "uint256"
        }
      ],
      "name": "ownerOf",
      "outputs": [
        {
          "internalType": "address",
          "name": "",
          "type": "address"
        }
      ],
      "stateMutability": "view",
      "type": "function"
    },
    {
      "inputs": [],
      "name": "renounceOwnership",
      "outputs": [],
      "stateMutability": "nonpayable",
      "type": "function"
    },
    {
      "inputs": [
        {
          "internalType": "address",
          "name": "from",
          "type": "address"
        },
        {
          "internalType": "address",
          "name": "to",
          "type": "address"
        },
        {
          "internalType": "uint256",
          "name": "tokenId",
          "type": "uint256"
        }
      ],
      "name": "safeTransferFrom",
      "outputs": [],
      "stateMutability": "nonpayable",
      "type": "function"
    },
    {
      "inputs": [
        {
          "internalType": "address",
          "name": "from",
          "type": "address"
        },
        {
          "internalType": "address",
          "name": "to",
          "type": "address"
        },
        {
          "internalType": "uint256",
          "name": "tokenId",
          "type": "uint256"
        },
        {
          "internalType": "bytes",
          "name": "data",
          "type": "bytes"
        }
      ],
      "name": "safeTransferFrom",
      "outputs": [],
      "stateMutability": "nonpayable",
      "type": "function"
    },
    {
      "inputs": [
        {
          "internalType": "address",
          "name": "operator",
          "type": "address"
        },
        {
          "internalType": "bool",
          "name": "approved",
          "type": "bool"
        }
      ],
      "name": "setApprovalForAll",
      "outputs": [],
      "stateMutability": "nonpayable",
      "type": "function"
    },
    {
      "inputs": [],
      "name": "symbol",
      "outputs": [
        {
          "internalType": "string",
          "name": "",
          "type": "string"
        }
      ],
      "stateMutability": "view",
      "type": "function"
    },
    {
      "inputs": [
        {
          "internalType": "uint256",
          "name": "index",
          "type": "uint256"
        }
      ],
      "name": "tokenByIndex",
      "outputs": [
        {
          "internalType": "uint256",
          "name": "",
          "type": "uint256"
        }
      ],
      "stateMutability": "view",
      "type": "function"
    },
    {
      "inputs": [
        {
          "internalType": "address",
          "name": "owner",
          "type": "address"
        },
        {
          "internalType": "uint256",
          "name": "index",
          "type": "uint256"
        }
      ],
      "name": "tokenOfOwnerByIndex",
      "outputs": [
        {
          "internalType": "uint256",
          "name": "",
          "type": "uint256"
        }
      ],
      "stateMutability": "view",
      "type": "function"
    },
    {
      "inputs": [],
      "name": "totalSupply",
      "outputs": [
        {
          "internalType": "uint256",
          "name": "",
          "type": "uint256"
        }
      ],
      "stateMutability": "view",
      "type": "function"
    },
    {
      "inputs": [
        {
          "internalType": "address",
          "name": "from",
          "type": "address"
        },
        {
          "internalType": "address",
          "name": "to",
          "type": "address"
        },
        {
          "internalType": "uint256",
          "name": "tokenId",
          "type": "uint256"
        }
      ],
      "name": "transferFrom",
      "outputs": [],
      "stateMutability": "nonpayable",
      "type": "function"
    },
    {
      "inputs": [
        {
          "internalType": "address",
          "name": "newOwner",
          "type": "address"
        }
      ],
      "name": "transferOwnership",
      "outputs": [],
      "stateMutability": "nonpayable",
      "type": "function"
    },
    {
      "stateMutability": "payable",
      "type": "receive"
    },
    {
      "inputs": [],
      "name": "safeMint",
      "outputs": [],
      "stateMutability": "nonpayable",
      "type": "function"
    },
    {
      "inputs": [
        {
          "internalType": "uint256",
          "name": "tokenId",
          "type": "uint256"
        },
        {
          "internalType": "string",
          "name": "uri",
          "type": "string"
        }
      ],
      "name": "updateTokenURI",
      "outputs": [],
      "stateMutability": "nonpayable",
      "type": "function"
    },
    {
      "inputs": [
        {
          "internalType": "address",
          "name": "_paymentReceiver",
          "type": "address"
        }
      ],
      "name": "updatePaymentReceiver",
      "outputs": [],
      "stateMutability": "nonpayable",
      "type": "function"
    },
    {
      "inputs": [
        {
          "internalType": "string",
          "name": "_contractURI",
          "type": "string"
        }
      ],
      "name": "setContractURI",
      "outputs": [],
      "stateMutability": "nonpayable",
      "type": "function"
    },
    {
      "inputs": [],
      "name": "withdraw",
      "outputs": [],
      "stateMutability": "nonpayable",
      "type": "function"
    },
    {
      "inputs": [
        {
          "internalType": "uint256",
          "name": "tokenId",
          "type": "uint256"
        }
      ],
      "name": "tokenURI",
      "outputs": [
        {
          "internalType": "string",
          "name": "",
          "type": "string"
        }
      ],
      "stateMutability": "view",
      "type": "function"
    },
    {
      "inputs": [
        {
          "internalType": "bytes4",
          "name": "interfaceId",
          "type": "bytes4"
        }
      ],
      "name": "supportsInterface",
      "outputs": [
        {
          "internalType": "bool",
          "name": "",
          "type": "bool"
        }
      ],
      "stateMutability": "view",
      "type": "function"
    },
    {
      "inputs": [
        {
          "internalType": "uint256",
          "name": "",
          "type": "uint256"
        },
        {
          "internalType": "uint256",
          "name": "salePrice",
          "type": "uint256"
        }
      ],
      "name": "royaltyInfo",
      "outputs": [
        {
          "internalType": "address",
          "name": "receiver",
          "type": "address"
        },
        {
          "internalType": "uint256",
          "name": "royaltyAmount",
          "type": "uint256"
        }
      ],
      "stateMutability": "view",
      "type": "function"
    }
  ],
  "bytecode": "0x60a06040526101f46080908152506064600d553480156200001f57600080fd5b5060405162004a6738038062004a678339818101604052810190620000459190620003c5565b6040518060400160405280600a81526020017f506978656c4368616473000000000000000000000000000000000000000000008152506040518060400160405280600481526020017f43484144000000000000000000000000000000000000000000000000000000008152508160009081620000c2919062000695565b508060019081620000d4919062000695565b505050620000f7620000eb6200016460201b60201c565b6200016c60201b60201c565b81600e908162000108919062000695565b5033601060006101000a81548173ffffffffffffffffffffffffffffffffffffffff021916908373ffffffffffffffffffffffffffffffffffffffff16021790555080600f90816200015b919062000695565b5050506200077c565b600033905090565b6000600b60009054906101000a900473ffffffffffffffffffffffffffffffffffffffff16905081600b60006101000a81548173ffffffffffffffffffffffffffffffffffffffff021916908373ffffffffffffffffffffffffffffffffffffffff1602179055508173ffffffffffffffffffffffffffffffffffffffff168173ffffffffffffffffffffffffffffffffffffffff167f8be0079c531659141344cd1fd0a4f28419497f9722a3daafe3b4186f6b6457e060405160405180910390a35050565b6000604051905090565b600080fd5b600080fd5b600080fd5b600080fd5b6000601f19601f8301169050919050565b7f4e487b7100000000000000000000000000000000000000000000000000000000600052604160045260246000fd5b6200029b8262000250565b810181811067ffffffffffffffff82111715620002bd57620002bc62000261565b5b80604052505050565b6000620002d262000232565b9050620002e0828262000290565b919050565b600067ffffffffffffffff82111562000303576200030262000261565b5b6200030e8262000250565b9050602081019050919050565b60005b838110156200033b5780820151818401526020810190506200031e565b60008484015250505050565b60006200035e6200035884620002e5565b620002c6565b9050828152602081018484840111156200037d576200037c6200024b565b5b6200038a8482856200031b565b509392505050565b600082601f830112620003aa57620003a962000246565b5b8151620003bc84826020860162000347565b91505092915050565b60008060408385031215620003df57620003de6200023c565b5b600083015167ffffffffffffffff8111156200040057620003ff62000241565b5b6200040e8582860162000392565b925050602083015167ffffffffffffffff81111562000432576200043162000241565b5b620004408582860162000392565b9150509250929050565b600081519050919050565b7f4e487b7100000000000000000000000000000000000000000000000000000000600052602260045260246000fd5b600060028204905060018216806200049d57607f821691505b602082108103620004b357620004b262000455565b5b50919050565b60008190508160005260206000209050919050565b60006020601f8301049050919050565b600082821b905092915050565b6000600883026200051d7fffffffffffffffffffffffffffffffffffffffffffffffffffffffffffffffff82620004de565b620005298683620004de565b95508019841693508086168417925050509392505050565b6000819050919050565b6000819050919050565b600062000576620005706200056a8462000541565b6200054b565b62000541565b9050919050565b6000819050919050565b620005928362000555565b620005aa620005a1826200057d565b848454620004eb565b825550505050565b600090565b620005c1620005b2565b620005ce81848462000587565b505050565b5b81811015620005f657620005ea600082620005b7565b600181019050620005d4565b5050565b601f82111562000645576200060f81620004b9565b6200061a84620004ce565b810160208510156200062a578190505b620006426200063985620004ce565b830182620005d3565b50505b505050565b600082821c905092915050565b60006200066a600019846008026200064a565b1980831691505092915050565b600062000685838362000657565b9150826002028217905092915050565b620006a0826200044a565b67ffffffffffffffff811115620006bc57620006bb62000261565b5b620006c8825462000484565b620006d5828285620005fa565b600060209050601f8311600181146200070d5760008415620006f8578287015190505b62000704858262000677565b86555062000774565b601f1984166200071d86620004b9565b60005b82811015620007475784890151825560018201915060208501945060208101905062000720565b8683101562000767578489015162000763601f89168262000657565b8355505b6001600288020188555050505b505050505050565b6080516142c86200079f60003960008181610d33015261107a01526142c86000f3fe6080604052600436106101bb5760003560e01c80636871ee40116100ec578063b88d4fde1161008a578063d5abeb0111610064578063d5abeb0114610614578063e8a3d4851461063f578063e985e9c51461066a578063f2fde38b146106a7576101c2565b8063b88d4fde14610583578063c7b61007146105ac578063c87b56dd146105d7576101c2565b80638da5cb5b116100c65780638da5cb5b146104db578063938e3d7b1461050657806395d89b411461052f578063a22cb4651461055a576101c2565b80636871ee401461047057806370a0823114610487578063715018a6146104c4576101c2565b806323b872dd116101595780633ccfd60b116101335780633ccfd60b146103b657806342842e0e146103cd5780634f6ccce7146103f65780636352211e14610433576101c2565b806323b872dd146103125780632a55205a1461033b5780632f745c5914610379576101c2565b8063095ea7b311610195578063095ea7b31461026c5780630bdfe46c1461029557806318160ddd146102be57806318e97fd1146102e9576101c2565b806301ffc9a7146101c757806306fdde0314610204578063081812fc1461022f576101c2565b366101c257005b600080fd5b3480156101d357600080fd5b506101ee60048036038101906101e99190612b37565b6106d0565b6040516101fb9190612b7f565b60405180910390f35b34801561021057600080fd5b506102196106e2565b6040516102269190612c2a565b60405180910390f35b34801561023b57600080fd5b5061025660048036038101906102519190612c82565b610774565b6040516102639190612cf0565b60405180910390f35b34801561027857600080fd5b50610293600480360381019061028e9190612d37565b6107ba565b005b3480156102a157600080fd5b506102bc60048036038101906102b79190612d77565b6108d1565b005b3480156102ca57600080fd5b506102d361091d565b6040516102e09190612db3565b60405180910390f35b3480156102f557600080fd5b50610310600480360381019061030b9190612f03565b61092a565b005b34801561031e57600080fd5b5061033960048036038101906103349190612f5f565b610a48565b005b34801561034757600080fd5b50610362600480360381019061035d9190612fb2565b610aa8565b604051610370929190612ff2565b60405180910390f35b34801561038557600080fd5b506103a0600480360381019061039b9190612d37565b610afa565b6040516103ad9190612db3565b60405180910390f35b3480156103c257600080fd5b506103cb610b9f565b005b3480156103d957600080fd5b506103f460048036038101906103ef9190612f5f565b610c18565b005b34801561040257600080fd5b5061041d60048036038101906104189190612c82565b610c38565b60405161042a9190612db3565b60405180910390f35b34801561043f57600080fd5b5061045a60048036038101906104559190612c82565b610ca9565b6040516104679190612cf0565b60405180910390f35b34801561047c57600080fd5b50610485610d2f565b005b34801561049357600080fd5b506104ae60048036038101906104a99190612d77565b610e46565b6040516104bb9190612db3565b60405180910390f35b3480156104d057600080fd5b506104d9610efd565b005b3480156104e757600080fd5b506104f0610f11565b6040516104fd9190612cf0565b60405180910390f35b34801561051257600080fd5b5061052d6004803603810190610528919061301b565b610f3b565b005b34801561053b57600080fd5b50610544610f56565b6040516105519190612c2a565b60405180910390f35b34801561056657600080fd5b50610581600480360381019061057c9190613090565b610fe8565b005b34801561058f57600080fd5b506105aa60048036038101906105a59190613171565b610ffe565b005b3480156105b857600080fd5b506105c1611060565b6040516105ce9190612db3565b60405180910390f35b3480156105e357600080fd5b506105fe60048036038101906105f99190612c82565b611066565b60405161060b9190612c2a565b60405180910390f35b34801561062057600080fd5b50610629611078565b6040516106369190612db3565b60405180910390f35b34801561064b57600080fd5b5061065461109c565b6040516106619190612c2a565b60405180910390f35b34801561067657600080fd5b50610691600480360381019061068c91906131f4565b61112a565b60405161069e9190612b7f565b60405180910390f35b3480156106b357600080fd5b506106ce60048036038101906106c99190612d77565b6111be565b005b60006106db82611241565b9050919050565b6060600080546106f190613263565b80601f016020809104026020016040519081016040528092919081815260200182805461071d90613263565b801561076a5780601f1061073f5761010080835404028352916020019161076a565b820191906000526020600020905b81548152906001019060200180831161074d57829003601f168201915b5050505050905090565b600061077f826112bb565b6004600083815260200190815260200160002060009054906101000a900473ffffffffffffffffffffffffffffffffffffffff169050919050565b60006107c582610ca9565b90508073ffffffffffffffffffffffffffffffffffffffff168373ffffffffffffffffffffffffffffffffffffffff1603610835576040517f08c379a000000000000000000000000000000000000000000000000000000000815260040161082c90613306565b60405180910390fd5b8073ffffffffffffffffffffffffffffffffffffffff16610854611306565b73ffffffffffffffffffffffffffffffffffffffff16148061088357506108828161087d611306565b61112a565b5b6108c2576040517f08c379a00000000000000000000000000000000000000000000000000000000081526004016108b990613398565b60405180910390fd5b6108cc838361130e565b505050565b6108d96113c7565b80601060006101000a81548173ffffffffffffffffffffffffffffffffffffffff021916908373ffffffffffffffffffffffffffffffffffffffff16021790555050565b6000600880549050905090565b6109326113c7565b61093b82611445565b61097a576040517f08c379a000000000000000000000000000000000000000000000000000000000815260040161097190613404565b60405180910390fd5b600015156011600084815260200190815260200160002060009054906101000a900460ff161515146109e1576040517f08c379a00000000000000000000000000000000000000000000000000000000081526004016109d890613470565b60405180910390fd5b60016011600084815260200190815260200160002060006101000a81548160ff021916908315150217905550817f929cc2f05ef887750595a55a18601853b3b1422b643bd8f77efaaaa67178dc5d60405160405180910390a2610a448282611486565b5050565b610a59610a53611306565b826114f3565b610a98576040517f08c379a0000000000000000000000000000000000000000000000000000000008152600401610a8f90613502565b60405180910390fd5b610aa3838383611588565b505050565b60008060006103e8600d5485610abe9190613551565b610ac891906135c2565b9050601060009054906101000a900473ffffffffffffffffffffffffffffffffffffffff168192509250509250929050565b6000610b0583610e46565b8210610b46576040517f08c379a0000000000000000000000000000000000000000000000000000000008152600401610b3d90613665565b60405180910390fd5b600660008473ffffffffffffffffffffffffffffffffffffffff1673ffffffffffffffffffffffffffffffffffffffff168152602001908152602001600020600083815260200190815260200160002054905092915050565b610ba76113c7565b6000479050601060009054906101000a900473ffffffffffffffffffffffffffffffffffffffff1673ffffffffffffffffffffffffffffffffffffffff166108fc829081150290604051600060405180830381858888f19350505050158015610c14573d6000803e3d6000fd5b5050565b610c3383838360405180602001604052806000815250610ffe565b505050565b6000610c4261091d565b8210610c83576040517f08c379a0000000000000000000000000000000000000000000000000000000008152600401610c7a906136f7565b60405180910390fd5b60088281548110610c9757610c96613717565b5b90600052602060002001549050919050565b600080610cb583611881565b9050600073ffffffffffffffffffffffffffffffffffffffff168173ffffffffffffffffffffffffffffffffffffffff1603610d26576040517f08c379a0000000000000000000000000000000000000000000000000000000008152600401610d1d90613792565b60405180910390fd5b80915050919050565b60017f0000000000000000000000000000000000000000000000000000000000000000610d5c91906137b2565b610d66600c6118be565b10610da6576040517f08c379a0000000000000000000000000000000000000000000000000000000008152600401610d9d90613832565b60405180910390fd5b6000610db2600c6118be565b90506000610dbf826118cc565b604051602001610dcf91906138da565b6040516020818303038152906040529050610dea600c61199a565b813373ffffffffffffffffffffffffffffffffffffffff167f2d8eb9b9558d4b5ef1d238622692f6156d5822009340e26ab15fac05d64c12f060405160405180910390a3610e3833836119b0565b610e428282611486565b5050565b60008073ffffffffffffffffffffffffffffffffffffffff168273ffffffffffffffffffffffffffffffffffffffff1603610eb6576040517f08c379a0000000000000000000000000000000000000000000000000000000008152600401610ead9061396e565b60405180910390fd5b600360008373ffffffffffffffffffffffffffffffffffffffff1673ffffffffffffffffffffffffffffffffffffffff168152602001908152602001600020549050919050565b610f056113c7565b610f0f60006119ce565b565b6000600b60009054906101000a900473ffffffffffffffffffffffffffffffffffffffff16905090565b610f436113c7565b80600e9081610f529190613b3a565b5050565b606060018054610f6590613263565b80601f0160208091040260200160405190810160405280929190818152602001828054610f9190613263565b8015610fde5780601f10610fb357610100808354040283529160200191610fde565b820191906000526020600020905b815481529060010190602001808311610fc157829003601f168201915b5050505050905090565b610ffa610ff3611306565b8383611a94565b5050565b61100f611009611306565b836114f3565b61104e576040517f08c379a000000000000000000000000000000000000000000000000000000000815260040161104590613502565b60405180910390fd5b61105a84848484611c00565b50505050565b600d5481565b606061107182611c5c565b9050919050565b7f000000000000000000000000000000000000000000000000000000000000000081565b600e80546110a990613263565b80601f01602080910402602001604051908101604052809291908181526020018280546110d590613263565b80156111225780601f106110f757610100808354040283529160200191611122565b820191906000526020600020905b81548152906001019060200180831161110557829003601f168201915b505050505081565b6000600560008473ffffffffffffffffffffffffffffffffffffffff1673ffffffffffffffffffffffffffffffffffffffff16815260200190815260200160002060008373ffffffffffffffffffffffffffffffffffffffff1673ffffffffffffffffffffffffffffffffffffffff16815260200190815260200160002060009054906101000a900460ff16905092915050565b6111c66113c7565b600073ffffffffffffffffffffffffffffffffffffffff168173ffffffffffffffffffffffffffffffffffffffff1603611235576040517f08c379a000000000000000000000000000000000000000000000000000000000815260040161122c90613c7e565b60405180910390fd5b61123e816119ce565b50565b60007f780e9d63000000000000000000000000000000000000000000000000000000007bffffffffffffffffffffffffffffffffffffffffffffffffffffffff1916827bffffffffffffffffffffffffffffffffffffffffffffffffffffffff191614806112b457506112b382611d6e565b5b9050919050565b6112c481611445565b611303576040517f08c379a00000000000000000000000000000000000000000000000000000000081526004016112fa90613792565b60405180910390fd5b50565b600033905090565b816004600083815260200190815260200160002060006101000a81548173ffffffffffffffffffffffffffffffffffffffff021916908373ffffffffffffffffffffffffffffffffffffffff160217905550808273ffffffffffffffffffffffffffffffffffffffff1661138183610ca9565b73ffffffffffffffffffffffffffffffffffffffff167f8c5be1e5ebec7d5bd14f71427d1e84f3dd0314c0f7b2291e5b200ac8c7c3b92560405160405180910390a45050565b6113cf611306565b73ffffffffffffffffffffffffffffffffffffffff166113ed610f11565b73ffffffffffffffffffffffffffffffffffffffff1614611443576040517f08c379a000000000000000000000000000000000000000000000000000000000815260040161143a90613cea565b60405180910390fd5b565b60008073ffffffffffffffffffffffffffffffffffffffff1661146783611881565b73ffffffffffffffffffffffffffffffffffffffff1614159050919050565b61148f82611445565b6114ce576040517f08c379a00000000000000000000000000000000000000000000000000000000081526004016114c590613d7c565b60405180910390fd5b80600a600084815260200190815260200160002090816114ee9190613b3a565b505050565b6000806114ff83610ca9565b90508073ffffffffffffffffffffffffffffffffffffffff168473ffffffffffffffffffffffffffffffffffffffff1614806115415750611540818561112a565b5b8061157f57508373ffffffffffffffffffffffffffffffffffffffff1661156784610774565b73ffffffffffffffffffffffffffffffffffffffff16145b91505092915050565b8273ffffffffffffffffffffffffffffffffffffffff166115a882610ca9565b73ffffffffffffffffffffffffffffffffffffffff16146115fe576040517f08c379a00000000000000000000000000000000000000000000000000000000081526004016115f590613e0e565b60405180910390fd5b600073ffffffffffffffffffffffffffffffffffffffff168273ffffffffffffffffffffffffffffffffffffffff160361166d576040517f08c379a000000000000000000000000000000000000000000000000000000000815260040161166490613ea0565b60405180910390fd5b61167a8383836001611e50565b8273ffffffffffffffffffffffffffffffffffffffff1661169a82610ca9565b73ffffffffffffffffffffffffffffffffffffffff16146116f0576040517f08c379a00000000000000000000000000000000000000000000000000000000081526004016116e790613e0e565b60405180910390fd5b6004600082815260200190815260200160002060006101000a81549073ffffffffffffffffffffffffffffffffffffffff02191690556001600360008573ffffffffffffffffffffffffffffffffffffffff1673ffffffffffffffffffffffffffffffffffffffff168152602001908152602001600020600082825403925050819055506001600360008473ffffffffffffffffffffffffffffffffffffffff1673ffffffffffffffffffffffffffffffffffffffff16815260200190815260200160002060008282540192505081905550816002600083815260200190815260200160002060006101000a81548173ffffffffffffffffffffffffffffffffffffffff021916908373ffffffffffffffffffffffffffffffffffffffff160217905550808273ffffffffffffffffffffffffffffffffffffffff168473ffffffffffffffffffffffffffffffffffffffff167fddf252ad1be2c89b69c2b068fc378daa952ba7f163c4a11628f55a4df523b3ef60405160405180910390a461187c8383836001611e62565b505050565b60006002600083815260200190815260200160002060009054906101000a900473ffffffffffffffffffffffffffffffffffffffff169050919050565b600081600001549050919050565b6060600060016118db84611e68565b01905060008167ffffffffffffffff8111156118fa576118f9612dd8565b5b6040519080825280601f01601f19166020018201604052801561192c5781602001600182028036833780820191505090505b509050600082602001820190505b60011561198f578080600190039150507f3031323334353637383961626364656600000000000000000000000000000000600a86061a8153600a858161198357611982613593565b5b0494506000850361193a575b819350505050919050565b6001816000016000828254019250508190555050565b6119ca828260405180602001604052806000815250611fbb565b5050565b6000600b60009054906101000a900473ffffffffffffffffffffffffffffffffffffffff16905081600b60006101000a81548173ffffffffffffffffffffffffffffffffffffffff021916908373ffffffffffffffffffffffffffffffffffffffff1602179055508173ffffffffffffffffffffffffffffffffffffffff168173ffffffffffffffffffffffffffffffffffffffff167f8be0079c531659141344cd1fd0a4f28419497f9722a3daafe3b4186f6b6457e060405160405180910390a35050565b8173ffffffffffffffffffffffffffffffffffffffff168373ffffffffffffffffffffffffffffffffffffffff1603611b02576040517f08c379a0000000000000000000000000000000000000000000000000000000008152600401611af990613f0c565b60405180910390fd5b80600560008573ffffffffffffffffffffffffffffffffffffffff1673ffffffffffffffffffffffffffffffffffffffff16815260200190815260200160002060008473ffffffffffffffffffffffffffffffffffffffff1673ffffffffffffffffffffffffffffffffffffffff16815260200190815260200160002060006101000a81548160ff0219169083151502179055508173ffffffffffffffffffffffffffffffffffffffff168373ffffffffffffffffffffffffffffffffffffffff167f17307eab39ab6107e8899845ad3d59bd9653f200f220920489ca2b5937696c3183604051611bf39190612b7f565b60405180910390a3505050565b611c0b848484611588565b611c1784848484612016565b611c56576040517f08c379a0000000000000000000000000000000000000000000000000000000008152600401611c4d90613f9e565b60405180910390fd5b50505050565b6060611c67826112bb565b6000600a60008481526020019081526020016000208054611c8790613263565b80601f0160208091040260200160405190810160405280929190818152602001828054611cb390613263565b8015611d005780601f10611cd557610100808354040283529160200191611d00565b820191906000526020600020905b815481529060010190602001808311611ce357829003601f168201915b505050505090506000611d1161219d565b90506000815103611d26578192505050611d69565b600082511115611d5b578082604051602001611d43929190613fbe565b60405160208183030381529060405292505050611d69565b611d648461222f565b925050505b919050565b60007f80ac58cd000000000000000000000000000000000000000000000000000000007bffffffffffffffffffffffffffffffffffffffffffffffffffffffff1916827bffffffffffffffffffffffffffffffffffffffffffffffffffffffff19161480611e3957507f5b5e139f000000000000000000000000000000000000000000000000000000007bffffffffffffffffffffffffffffffffffffffffffffffffffffffff1916827bffffffffffffffffffffffffffffffffffffffffffffffffffffffff1916145b80611e495750611e4882612297565b5b9050919050565b611e5c84848484612301565b50505050565b50505050565b600080600090507a184f03e93ff9f4daa797ed6e38ed64bf6a1f0100000000000000008310611ec6577a184f03e93ff9f4daa797ed6e38ed64bf6a1f0100000000000000008381611ebc57611ebb613593565b5b0492506040810190505b6d04ee2d6d415b85acef81000000008310611f03576d04ee2d6d415b85acef81000000008381611ef957611ef8613593565b5b0492506020810190505b662386f26fc100008310611f3257662386f26fc100008381611f2857611f27613593565b5b0492506010810190505b6305f5e1008310611f5b576305f5e1008381611f5157611f50613593565b5b0492506008810190505b6127108310611f80576127108381611f7657611f75613593565b5b0492506004810190505b60648310611fa35760648381611f9957611f98613593565b5b0492506002810190505b600a8310611fb2576001810190505b80915050919050565b611fc5838361245f565b611fd26000848484612016565b612011576040517f08c379a000000000000000000000000000000000000000000000000000000000815260040161200890613f9e565b60405180910390fd5b505050565b60006120378473ffffffffffffffffffffffffffffffffffffffff1661267c565b15612190578373ffffffffffffffffffffffffffffffffffffffff1663150b7a02612060611306565b8786866040518563ffffffff1660e01b81526004016120829493929190614037565b6020604051808303816000875af19250505080156120be57506040513d601f19601f820116820180604052508101906120bb9190614098565b60015b612140573d80600081146120ee576040519150601f19603f3d011682016040523d82523d6000602084013e6120f3565b606091505b506000815103612138576040517f08c379a000000000000000000000000000000000000000000000000000000000815260040161212f90613f9e565b60405180910390fd5b805181602001fd5b63150b7a0260e01b7bffffffffffffffffffffffffffffffffffffffffffffffffffffffff1916817bffffffffffffffffffffffffffffffffffffffffffffffffffffffff191614915050612195565b600190505b949350505050565b6060600f80546121ac90613263565b80601f01602080910402602001604051908101604052809291908181526020018280546121d890613263565b80156122255780601f106121fa57610100808354040283529160200191612225565b820191906000526020600020905b81548152906001019060200180831161220857829003601f168201915b5050505050905090565b606061223a826112bb565b600061224461219d565b90506000815111612264576040518060200160405280600081525061228f565b8061226e846118cc565b60405160200161227f929190613fbe565b6040516020818303038152906040525b915050919050565b60007f01ffc9a7000000000000000000000000000000000000000000000000000000007bffffffffffffffffffffffffffffffffffffffffffffffffffffffff1916827bffffffffffffffffffffffffffffffffffffffffffffffffffffffff1916149050919050565b61230d8484848461269f565b6001811115612351576040517f08c379a000000000000000000000000000000000000000000000000000000000815260040161234890614137565b60405180910390fd5b6000829050600073ffffffffffffffffffffffffffffffffffffffff168573ffffffffffffffffffffffffffffffffffffffff160361239857612393816127c5565b6123d7565b8373ffffffffffffffffffffffffffffffffffffffff168573ffffffffffffffffffffffffffffffffffffffff16146123d6576123d5858261280e565b5b5b600073ffffffffffffffffffffffffffffffffffffffff168473ffffffffffffffffffffffffffffffffffffffff1603612419576124148161297b565b612458565b8473ffffffffffffffffffffffffffffffffffffffff168473ffffffffffffffffffffffffffffffffffffffff1614612457576124568482612a4c565b5b5b5050505050565b600073ffffffffffffffffffffffffffffffffffffffff168273ffffffffffffffffffffffffffffffffffffffff16036124ce576040517f08c379a00000000000000000000000000000000000000000000000000000000081526004016124c5906141a3565b60405180910390fd5b6124d781611445565b15612517576040517f08c379a000000000000000000000000000000000000000000000000000000000815260040161250e9061420f565b60405180910390fd5b612525600083836001611e50565b61252e81611445565b1561256e576040517f08c379a00000000000000000000000000000000000000000000000000000000081526004016125659061420f565b60405180910390fd5b6001600360008473ffffffffffffffffffffffffffffffffffffffff1673ffffffffffffffffffffffffffffffffffffffff16815260200190815260200160002060008282540192505081905550816002600083815260200190815260200160002060006101000a81548173ffffffffffffffffffffffffffffffffffffffff021916908373ffffffffffffffffffffffffffffffffffffffff160217905550808273ffffffffffffffffffffffffffffffffffffffff16600073ffffffffffffffffffffffffffffffffffffffff167fddf252ad1be2c89b69c2b068fc378daa952ba7f163c4a11628f55a4df523b3ef60405160405180910390a4612678600083836001611e62565b5050565b6000808273ffffffffffffffffffffffffffffffffffffffff163b119050919050565b60018111156127bf57600073ffffffffffffffffffffffffffffffffffffffff168473ffffffffffffffffffffffffffffffffffffffff16146127335780600360008673ffffffffffffffffffffffffffffffffffffffff1673ffffffffffffffffffffffffffffffffffffffff168152602001908152602001600020600082825461272b91906137b2565b925050819055505b600073ffffffffffffffffffffffffffffffffffffffff168373ffffffffffffffffffffffffffffffffffffffff16146127be5780600360008573ffffffffffffffffffffffffffffffffffffffff1673ffffffffffffffffffffffffffffffffffffffff16815260200190815260200160002060008282546127b6919061422f565b925050819055505b5b50505050565b6008805490506009600083815260200190815260200160002081905550600881908060018154018082558091505060019003906000526020600020016000909190919091505550565b6000600161281b84610e46565b61282591906137b2565b905060006007600084815260200190815260200160002054905081811461290a576000600660008673ffffffffffffffffffffffffffffffffffffffff1673ffffffffffffffffffffffffffffffffffffffff168152602001908152602001600020600084815260200190815260200160002054905080600660008773ffffffffffffffffffffffffffffffffffffffff1673ffffffffffffffffffffffffffffffffffffffff168152602001908152602001600020600084815260200190815260200160002081905550816007600083815260200190815260200160002081905550505b6007600084815260200190815260200160002060009055600660008573ffffffffffffffffffffffffffffffffffffffff1673ffffffffffffffffffffffffffffffffffffffff16815260200190815260200160002060008381526020019081526020016000206000905550505050565b6000600160088054905061298f91906137b2565b90506000600960008481526020019081526020016000205490506000600883815481106129bf576129be613717565b5b9060005260206000200154905080600883815481106129e1576129e0613717565b5b906000526020600020018190555081600960008381526020019081526020016000208190555060096000858152602001908152602001600020600090556008805480612a3057612a2f614263565b5b6001900381819060005260206000200160009055905550505050565b6000612a5783610e46565b905081600660008573ffffffffffffffffffffffffffffffffffffffff1673ffffffffffffffffffffffffffffffffffffffff168152602001908152602001600020600083815260200190815260200160002081905550806007600084815260200190815260200160002081905550505050565b6000604051905090565b600080fd5b600080fd5b60007fffffffff0000000000000000000000000000000000000000000000000000000082169050919050565b612b1481612adf565b8114612b1f57600080fd5b50565b600081359050612b3181612b0b565b92915050565b600060208284031215612b4d57612b4c612ad5565b5b6000612b5b84828501612b22565b91505092915050565b60008115159050919050565b612b7981612b64565b82525050565b6000602082019050612b946000830184612b70565b92915050565b600081519050919050565b600082825260208201905092915050565b60005b83811015612bd4578082015181840152602081019050612bb9565b60008484015250505050565b6000601f19601f8301169050919050565b6000612bfc82612b9a565b612c068185612ba5565b9350612c16818560208601612bb6565b612c1f81612be0565b840191505092915050565b60006020820190508181036000830152612c448184612bf1565b905092915050565b6000819050919050565b612c5f81612c4c565b8114612c6a57600080fd5b50565b600081359050612c7c81612c56565b92915050565b600060208284031215612c9857612c97612ad5565b5b6000612ca684828501612c6d565b91505092915050565b600073ffffffffffffffffffffffffffffffffffffffff82169050919050565b6000612cda82612caf565b9050919050565b612cea81612ccf565b82525050565b6000602082019050612d056000830184612ce1565b92915050565b612d1481612ccf565b8114612d1f57600080fd5b50565b600081359050612d3181612d0b565b92915050565b60008060408385031215612d4e57612d4d612ad5565b5b6000612d5c85828601612d22565b9250506020612d6d85828601612c6d565b9150509250929050565b600060208284031215612d8d57612d8c612ad5565b5b6000612d9b84828501612d22565b91505092915050565b612dad81612c4c565b82525050565b6000602082019050612dc86000830184612da4565b92915050565b600080fd5b600080fd5b7f4e487b7100000000000000000000000000000000000000000000000000000000600052604160045260246000fd5b612e1082612be0565b810181811067ffffffffffffffff82111715612e2f57612e2e612dd8565b5b80604052505050565b6000612e42612acb565b9050612e4e8282612e07565b919050565b600067ffffffffffffffff821115612e6e57612e6d612dd8565b5b612e7782612be0565b9050602081019050919050565b82818337600083830152505050565b6000612ea6612ea184612e53565b612e38565b905082815260208101848484011115612ec257612ec1612dd3565b5b612ecd848285612e84565b509392505050565b600082601f830112612eea57612ee9612dce565b5b8135612efa848260208601612e93565b91505092915050565b60008060408385031215612f1a57612f19612ad5565b5b6000612f2885828601612c6d565b925050602083013567ffffffffffffffff811115612f4957612f48612ada565b5b612f5585828601612ed5565b9150509250929050565b600080600060608486031215612f7857612f77612ad5565b5b6000612f8686828701612d22565b9350506020612f9786828701612d22565b9250506040612fa886828701612c6d565b9150509250925092565b60008060408385031215612fc957612fc8612ad5565b5b6000612fd785828601612c6d565b9250506020612fe885828601612c6d565b9150509250929050565b60006040820190506130076000830185612ce1565b6130146020830184612da4565b9392505050565b60006020828403121561303157613030612ad5565b5b600082013567ffffffffffffffff81111561304f5761304e612ada565b5b61305b84828501612ed5565b91505092915050565b61306d81612b64565b811461307857600080fd5b50565b60008135905061308a81613064565b92915050565b600080604083850312156130a7576130a6612ad5565b5b60006130b585828601612d22565b92505060206130c68582860161307b565b9150509250929050565b600067ffffffffffffffff8211156130eb576130ea612dd8565b5b6130f482612be0565b9050602081019050919050565b600061311461310f846130d0565b612e38565b9050828152602081018484840111156131305761312f612dd3565b5b61313b848285612e84565b509392505050565b600082601f83011261315857613157612dce565b5b8135613168848260208601613101565b91505092915050565b6000806000806080858703121561318b5761318a612ad5565b5b600061319987828801612d22565b94505060206131aa87828801612d22565b93505060406131bb87828801612c6d565b925050606085013567ffffffffffffffff8111156131dc576131db612ada565b5b6131e887828801613143565b91505092959194509250565b6000806040838503121561320b5761320a612ad5565b5b600061321985828601612d22565b925050602061322a85828601612d22565b9150509250929050565b7f4e487b7100000000000000000000000000000000000000000000000000000000600052602260045260246000fd5b6000600282049050600182168061327b57607f821691505b60208210810361328e5761328d613234565b5b50919050565b7f4552433732313a20617070726f76616c20746f2063757272656e74206f776e6560008201527f7200000000000000000000000000000000000000000000000000000000000000602082015250565b60006132f0602183612ba5565b91506132fb82613294565b604082019050919050565b6000602082019050818103600083015261331f816132e3565b9050919050565b7f4552433732313a20617070726f76652063616c6c6572206973206e6f7420746f60008201527f6b656e206f776e6572206f7220617070726f76656420666f7220616c6c000000602082015250565b6000613382603d83612ba5565b915061338d82613326565b604082019050919050565b600060208201905081810360008301526133b181613375565b9050919050565b7f546f6b656e20646f6573206e6f74206578697374000000000000000000000000600082015250565b60006133ee601483612ba5565b91506133f9826133b8565b602082019050919050565b6000602082019050818103600083015261341d816133e1565b9050919050565b7f546f6b656e2055524920616c7265616479207570646174656400000000000000600082015250565b600061345a601983612ba5565b915061346582613424565b602082019050919050565b600060208201905081810360008301526134898161344d565b9050919050565b7f4552433732313a2063616c6c6572206973206e6f7420746f6b656e206f776e6560008201527f72206f7220617070726f76656400000000000000000000000000000000000000602082015250565b60006134ec602d83612ba5565b91506134f782613490565b604082019050919050565b6000602082019050818103600083015261351b816134df565b9050919050565b7f4e487b7100000000000000000000000000000000000000000000000000000000600052601160045260246000fd5b600061355c82612c4c565b915061356783612c4c565b925082820261357581612c4c565b9150828204841483151761358c5761358b613522565b5b5092915050565b7f4e487b7100000000000000000000000000000000000000000000000000000000600052601260045260246000fd5b60006135cd82612c4c565b91506135d883612c4c565b9250826135e8576135e7613593565b5b828204905092915050565b7f455243373231456e756d657261626c653a206f776e657220696e646578206f7560008201527f74206f6620626f756e6473000000000000000000000000000000000000000000602082015250565b600061364f602b83612ba5565b915061365a826135f3565b604082019050919050565b6000602082019050818103600083015261367e81613642565b9050919050565b7f455243373231456e756d657261626c653a20676c6f62616c20696e646578206f60008201527f7574206f6620626f756e64730000000000000000000000000000000000000000602082015250565b60006136e1602c83612ba5565b91506136ec82613685565b604082019050919050565b60006020820190508181036000830152613710816136d4565b9050919050565b7f4e487b7100000000000000000000000000000000000000000000000000000000600052603260045260246000fd5b7f4552433732313a20696e76616c696420746f6b656e2049440000000000000000600082015250565b600061377c601883612ba5565b915061378782613746565b602082019050919050565b600060208201905081810360008301526137ab8161376f565b9050919050565b60006137bd82612c4c565b91506137c883612c4c565b92508282039050818111156137e0576137df613522565b5b92915050565b7f4d617820737570706c7920726561636865640000000000000000000000000000600082015250565b600061381c601283612ba5565b9150613827826137e6565b602082019050919050565b6000602082019050818103600083015261384b8161380f565b9050919050565b600081905092915050565b600061386882612b9a565b6138728185613852565b9350613882818560208601612bb6565b80840191505092915050565b7f2e6a736f6e000000000000000000000000000000000000000000000000000000600082015250565b60006138c4600583613852565b91506138cf8261388e565b600582019050919050565b60006138e6828461385d565b91506138f1826138b7565b915081905092915050565b7f4552433732313a2061646472657373207a65726f206973206e6f74206120766160008201527f6c6964206f776e65720000000000000000000000000000000000000000000000602082015250565b6000613958602983612ba5565b9150613963826138fc565b604082019050919050565b600060208201905081810360008301526139878161394b565b9050919050565b60008190508160005260206000209050919050565b60006020601f8301049050919050565b600082821b905092915050565b6000600883026139f07fffffffffffffffffffffffffffffffffffffffffffffffffffffffffffffffff826139b3565b6139fa86836139b3565b95508019841693508086168417925050509392505050565b6000819050919050565b6000613a37613a32613a2d84612c4c565b613a12565b612c4c565b9050919050565b6000819050919050565b613a5183613a1c565b613a65613a5d82613a3e565b8484546139c0565b825550505050565b600090565b613a7a613a6d565b613a85818484613a48565b505050565b5b81811015613aa957613a9e600082613a72565b600181019050613a8b565b5050565b601f821115613aee57613abf8161398e565b613ac8846139a3565b81016020851015613ad7578190505b613aeb613ae3856139a3565b830182613a8a565b50505b505050565b600082821c905092915050565b6000613b1160001984600802613af3565b1980831691505092915050565b6000613b2a8383613b00565b9150826002028217905092915050565b613b4382612b9a565b67ffffffffffffffff811115613b5c57613b5b612dd8565b5b613b668254613263565b613b71828285613aad565b600060209050601f831160018114613ba45760008415613b92578287015190505b613b9c8582613b1e565b865550613c04565b601f198416613bb28661398e565b60005b82811015613bda57848901518255600182019150602085019450602081019050613bb5565b86831015613bf75784890151613bf3601f891682613b00565b8355505b6001600288020188555050505b505050505050565b7f4f776e61626c653a206e6577206f776e657220697320746865207a65726f206160008201527f6464726573730000000000000000000000000000000000000000000000000000602082015250565b6000613c68602683612ba5565b9150613c7382613c0c565b604082019050919050565b60006020820190508181036000830152613c9781613c5b565b9050919050565b7f4f776e61626c653a2063616c6c6572206973206e6f7420746865206f776e6572600082015250565b6000613cd4602083612ba5565b9150613cdf82613c9e565b602082019050919050565b60006020820190508181036000830152613d0381613cc7565b9050919050565b7f45524337323155524953746f726167653a2055524920736574206f66206e6f6e60008201527f6578697374656e7420746f6b656e000000000000000000000000000000000000602082015250565b6000613d66602e83612ba5565b9150613d7182613d0a565b604082019050919050565b60006020820190508181036000830152613d9581613d59565b9050919050565b7f4552433732313a207472616e736665722066726f6d20696e636f72726563742060008201527f6f776e6572000000000000000000000000000000000000000000000000000000602082015250565b6000613df8602583612ba5565b9150613e0382613d9c565b604082019050919050565b60006020820190508181036000830152613e2781613deb565b9050919050565b7f4552433732313a207472616e7366657220746f20746865207a65726f2061646460008201527f7265737300000000000000000000000000000000000000000000000000000000602082015250565b6000613e8a602483612ba5565b9150613e9582613e2e565b604082019050919050565b60006020820190508181036000830152613eb981613e7d565b9050919050565b7f4552433732313a20617070726f766520746f2063616c6c657200000000000000600082015250565b6000613ef6601983612ba5565b9150613f0182613ec0565b602082019050919050565b60006020820190508181036000830152613f2581613ee9565b9050919050565b7f4552433732313a207472616e7366657220746f206e6f6e20455243373231526560008201527f63656976657220696d706c656d656e7465720000000000000000000000000000602082015250565b6000613f88603283612ba5565b9150613f9382613f2c565b604082019050919050565b60006020820190508181036000830152613fb781613f7b565b9050919050565b6000613fca828561385d565b9150613fd6828461385d565b91508190509392505050565b600081519050919050565b600082825260208201905092915050565b600061400982613fe2565b6140138185613fed565b9350614023818560208601612bb6565b61402c81612be0565b840191505092915050565b600060808201905061404c6000830187612ce1565b6140596020830186612ce1565b6140666040830185612da4565b81810360608301526140788184613ffe565b905095945050505050565b60008151905061409281612b0b565b92915050565b6000602082840312156140ae576140ad612ad5565b5b60006140bc84828501614083565b91505092915050565b7f455243373231456e756d657261626c653a20636f6e736563757469766520747260008201527f616e7366657273206e6f7420737570706f727465640000000000000000000000602082015250565b6000614121603583612ba5565b915061412c826140c5565b604082019050919050565b6000602082019050818103600083015261415081614114565b9050919050565b7f4552433732313a206d696e7420746f20746865207a65726f2061646472657373600082015250565b600061418d602083612ba5565b915061419882614157565b602082019050919050565b600060208201905081810360008301526141bc81614180565b9050919050565b7f4552433732313a20746f6b656e20616c7265616479206d696e74656400000000600082015250565b60006141f9601c83612ba5565b9150614204826141c3565b602082019050919050565b60006020820190508181036000830152614228816141ec565b9050919050565b600061423a82612c4c565b915061424583612c4c565b925082820190508082111561425d5761425c613522565b5b92915050565b7f4e487b7100000000000000000000000000000000000000000000000000000000600052603160045260246000fdfea264697066735822122068482504a3ee99134a261073b49c520651df67150e18ba9c082113a23863fbd264736f6c63430008110033",
  "immutableReferences": {
    "3292": [
      {
        "length": 32,
        "start": 3379
      },
      {
        "length": 32,
        "start": 4218
      }
    ]
  },
  "source": "// SPDX-License-Identifier: MIT\npragma solidity ^0.8.17;\n\nimport \"@openzeppelin/contracts/token/ERC721/ERC721.sol\";\nimport \"@openzeppelin/contracts/token/ERC721/extensions/ERC721Enumerable.sol\";\nimport \"@openzeppelin/contracts/token/ERC721/extensions/ERC721URIStorage.sol\";\nimport \"@openzeppelin/contracts/interfaces/IERC2981.sol\";\nimport \"@openzeppelin/contracts/access/Ownable.sol\";\nimport \"@openzeppelin/contracts/utils/Counters.sol\";\nimport \"@openzeppelin/contracts/utils/Strings.sol\";\n\n/// @custom:security-contact contact@altify.io\ncontract PixelChads is ERC721, ERC721Enumerable, ERC721URIStorage, IERC2981, Ownable {\n    using Counters for Counters.Counter;\n    using Strings for uint256;\n\n    Counters.Counter private _tokenIdCounter;\n\n    event tokenMinted(address indexed to, uint256 indexed tokenId);\n    event tokenUpdated(uint256 indexed tokenId);\n\n    uint256 public immutable maxSupply = 500;\n    uint256 public collectionRoyaltyAmount = 100; // 10%\n    string public contractURI;\n    string private baseURI;\n    address private paymentReceiver;\n    mapping(uint256 => bool) tokenHasUpdated;\n\n    constructor(string memory _contractURI, string memory _startingBaseURI) ERC721(\"PixelChads\", \"CHAD\") {\n        contractURI = _contractURI;\n        paymentReceiver = msg.sender;\n        baseURI = _startingBaseURI;\n    }\n\n    receive() external payable {}\n\n    function _baseURI() internal view override returns (string memory) {\n        return baseURI;\n    }\n\n    function safeMint() public {\n        require(_tokenIdCounter.current() < maxSupply - 1, \"Max supply reached\");\n        uint256 tokenId = _tokenIdCounter.current();\n        string memory uri = string(abi.encodePacked(tokenId.toString(), \".json\"));\n        _tokenIdCounter.increment();\n        emit tokenMinted(msg.sender, tokenId);\n        _safeMint(msg.sender, tokenId);\n        _setTokenURI(tokenId, uri);\n    }\n\n    function updateTokenURI(uint256 tokenId, string memory uri) public onlyOwner {\n        require(_exists(tokenId), \"Token does not exist\");\n        require(tokenHasUpdated[tokenId] == false, \"Token URI already updated\");\n        tokenHasUpdated[tokenId] = true;\n        emit tokenUpdated(tokenId);\n        _setTokenURI(tokenId, uri);\n    }\n\n    function updatePaymentReceiver(address _paymentReceiver) public onlyOwner {\n        paymentReceiver =  _paymentReceiver;\n    }\n\n    function setContractURI(string memory _contractURI) public onlyOwner {\n        contractURI = _contractURI;\n    }\n\n    function withdraw() public onlyOwner {\n        uint256 balance = address(this).balance;\n        payable(paymentReceiver).transfer(balance);\n    }\n\n    // The following functions are overrides required by Solidity.\n\n    function _beforeTokenTransfer(address from, address to, uint256 tokenId, uint256 batchSize)\n        internal\n        override(ERC721, ERC721Enumerable)\n    {\n        super._beforeTokenTransfer(from, to, tokenId, batchSize);\n    }\n\n    function _burn(uint256 tokenId) internal override(ERC721, ERC721URIStorage) {\n        super._burn(tokenId);\n    }\n\n    function tokenURI(uint256 tokenId)\n        public\n        view\n        override(ERC721, ERC721URIStorage)\n        returns (string memory)\n    {\n        return super.tokenURI(tokenId);\n    }\n\n    function supportsInterface(bytes4 interfaceId)\n        public\n        view\n        override(ERC721, ERC721Enumerable, IERC165)\n        returns (bool)\n    {\n        return super.supportsInterface(interfaceId);\n    }\n\n    /// IERC2981 Royalty Enforcement\n    function royaltyInfo(uint256 , uint256 salePrice)\n    external\n    view\n    returns (address receiver, uint256 royaltyAmount)\n    {\n        // calculate the amount of royalties\n        uint256 _royaltyAmount = (salePrice * collectionRoyaltyAmount) / 1000; // 10%\n        // return the amount of royalties and the recipient collection address\n        return (paymentReceiver, _royaltyAmount);\n    }\n\n}",
  "sourcePath": "/mnt/c/Users/danie/OneDrive/Desktop/Programming/nft/pixelchads/contracts/pixelchads.sol",
  "compiler": {
    "name": "solc",
    "version": "0.8.17+commit.8df45f5f.Emscripten.clang"
  },
  "schemaVersion": "3.4.11",
  "updatedAt": "2023-02-13T11:50:00.586Z",
  "devdoc": {
    "custom:security-contact": "contact@altify.io",
    "kind": "dev",
    "methods": {
      "approve(address,uint256)": {
        "details": "See {IERC721-approve}."
      },
      "balanceOf(address)": {
        "details": "See {IERC721-balanceOf}."
      },
      "getApproved(uint256)": {
        "details": "See {IERC721-getApproved}."
      },
      "isApprovedForAll(address,address)": {
        "details": "See {IERC721-isApprovedForAll}."
      },
      "name()": {
        "details": "See {IERC721Metadata-name}."
      },
      "owner()": {
        "details": "Returns the address of the current owner."
      },
      "ownerOf(uint256)": {
        "details": "See {IERC721-ownerOf}."
      },
      "renounceOwnership()": {
        "details": "Leaves the contract without owner. It will not be possible to call `onlyOwner` functions anymore. Can only be called by the current owner. NOTE: Renouncing ownership will leave the contract without an owner, thereby removing any functionality that is only available to the owner."
      },
      "safeTransferFrom(address,address,uint256)": {
        "details": "See {IERC721-safeTransferFrom}."
      },
      "safeTransferFrom(address,address,uint256,bytes)": {
        "details": "See {IERC721-safeTransferFrom}."
      },
      "setApprovalForAll(address,bool)": {
        "details": "See {IERC721-setApprovalForAll}."
      },
      "symbol()": {
        "details": "See {IERC721Metadata-symbol}."
      },
      "tokenByIndex(uint256)": {
        "details": "See {IERC721Enumerable-tokenByIndex}."
      },
      "tokenOfOwnerByIndex(address,uint256)": {
        "details": "See {IERC721Enumerable-tokenOfOwnerByIndex}."
      },
      "totalSupply()": {
        "details": "See {IERC721Enumerable-totalSupply}."
      },
      "transferFrom(address,address,uint256)": {
        "details": "See {IERC721-transferFrom}."
      },
      "transferOwnership(address)": {
        "details": "Transfers ownership of the contract to a new account (`newOwner`). Can only be called by the current owner."
      }
    },
    "version": 1
  },
  "userdoc": {
    "kind": "user",
    "methods": {
      "royaltyInfo(uint256,uint256)": {
        "notice": "IERC2981 Royalty Enforcement"
      }
    },
    "version": 1
  }
}